:020000040000FA
:060000007BEF0DF0120081
:020006001200E6
:08000800F2A402D01BEF09F085
:100010009EA002D07FEF09F09EAC02D0BEEF0AF0A6
:100020009EAA02D0B4EF07F01200D08EF28E12001A
:10003000FF0EE350146E480E01D04C0EE76EE72E13
:10004000FED7E76AE72EFED7142EF7D7000012007E
:100050000A00DA1C00007E0200000B000000B61C43
:1000600000008C01000024000000B41C0000890284
:10007000000002000000A91C0000EB0100000B00C2
:1000800000005F1B00008D02000001000000951CB5
:100090000000C901000014000000871C0000DD0101
:1000A00000000E0000006E1C0000B00100001900EE
:1000B0000000E21B0000000100008C000000641B37
:0A00C0000000000200007E000000B6
:0600CA000101906B13EF31
:1000D00003F0D9CFE6FFE1CFD9FFE652DF6A060E83
:1000E000DF5C0AE2DF50EA6A910FE96E010EEA2254
:1000F0003F0EEF6EDF2AF3D7010EE66E96EC0AF0A4
:10010000E552F3CF8EF1F4CF8FF157D98EC1E6FFD0
:100110008FC1E6FF48D8E552E5520101902BE66A0F
:1001200096EC0AF0E552F3CF8CF1F4CF8DF145D97E
:100130008CC1E6FF8DC1E6FF36D8E552E5520101DC
:10014000906B910EE66E010EE66EC6EC06F0E5527F
:10015000E5520101AF51106E116A11341EE21050C8
:100160009608000E115419E2A0518C5DA1518D59D1
:1001700005E38C519E5D8D519F5903E2010EA66FE0
:1001800001D0A66BA651010A05E0010A07E1818CA6
:10019000819E04D0818E819C01D0AF2BE552E55227
:1001A000E7CFD9FF1200D9CFE6FFE1CFD9FF010198
:1001B000905102E1976B04D0900502E1030E976F16
:1001C000FD0EDBCF10F0FE0EDBCF11F00A0E0B6E32
:1001D0000C6A10C006F011C007F042EC0DF002C02E
:1001E00010F003C011F001019751EA6A910FE96E16
:1001F000010EEA2202C0EFFF9751EA6A910FE96E01
:10020000010EEA22EF50090A01E1A5D0010A01E13D
:1002100092D00F0A01E17FD0010A6DE0030A5BE092
:10022000010A49E0070A37E0010A25E0030A13E062
:10023000010A01E0A0D09751EA6A910FE96E010E20
:10024000EA223F0EEF6E9751EA6A980FE96E010EAF
:10025000EA22300E8FD09751EA6A910FE96E010EB3
:10026000EA22060EEF6E9751EA6A980FE96E010EC8
:10027000EA22310E7FD09751EA6A910FE96E010EA2
:10028000EA225B0EEF6E9751EA6A980FE96E010E53
:10029000EA22320E6FD09751EA6A910FE96E010E91
:1002A000EA224F0EEF6E9751EA6A980FE96E010E3F
:1002B000EA22330E5FD09751EA6A910FE96E010E80
:1002C000EA22660EEF6E9751EA6A980FE96E010E08
:1002D000EA22340E4FD09751EA6A910FE96E010E6F
:1002E000EA226D0EEF6E9751EA6A980FE96E010EE1
:1002F000EA22350E3FD09751EA6A910FE96E010E5E
:10030000EA227D0EEF6E9751EA6A980FE96E010EB0
:10031000EA22360E2FD09751EA6A910FE96E010E4C
:10032000EA22070EEF6E9751EA6A980FE96E010E06
:10033000EA22370E1FD09751EA6A910FE96E010E3B
:10034000EA227F0EEF6E9751EA6A980FE96E010E6E
:10035000EA22380E0FD09751EA6A910FE96E010E2A
:10036000EA226F0EEF6E9751EA6A980FE96E010E5E
:10037000EA22390EEF6E972BD950FD0FE96EFF0E72
:10038000DA20EA6E0A0E0B6E0C6AEECF06F0EDCFA5
:1003900007F042EC0DF006C0EEFF07C0EDFF000EC7
:1003A000D880EE54000EED5401E20AD70101928F7D
:1003B000958FE552E7CFD9FF1200D9CFE6FFE1CF05
:1003C000D9FF040EE126DE6ADE6ADE6ADD6ADD52EE
:1003D000DD5201019051010A40E0010A01E079D0AB
:1003E000D70E8E5D000E8F5903E28E6B8F6B71D02E
:1003F0008EC104F08FC105F0D70E045E000E055AC1
:10040000066A076A950E096E040E0A6E0B6A0C6A7C
:10041000D3EC0BF000C0DEFF01C0DEFF02C0DEFF48
:1004200003C0DDFFDD52DD52D9CFE9FFDACFEAFFAD
:10043000EECF10F0EECF11F0EECF12F0EFCF13F0C1
:100440000A0ED8901332123211321032E806F9E156
:1004500010C08EF111C08FF13CD0D70E8C5D000E14
:100460008D5903E28C6B8D6B34D08CC104F08DC13F
:1004700005F0D70E045E000E055A066A076A950E4F
:10048000096E040E0A6E0B6A0C6AD3EC0BF000C006
:10049000DEFF01C0DEFF02C0DEFF03C0DDFFDD5274
:1004A000DD52D9CFE9FFDACFEAFFEECF10F0EECF81
:1004B00011F0EECF12F0EFCF13F00A0ED8901332F6
:1004C000123211321032E806F9E110C08CF111C07D
:1004D0008DF1040EE15C02E2E16AE552E16EE55263
:1004E000E7CFD9FF1200D9CFE6FFE1CFD9FF040E45
:1004F000E126FD0EDBCFE9FFFE0EDBCFEAFF020EA9
:10050000EFCFDBFF030EDB6A020EDB50820A4BE00B
:10051000030A19E0010A6FE1060EF36E030EF3CF32
:10052000DBFFFB0EDBCFE9FFFC0EDBCFEAFF800E2B
:10053000EF6EF90EDBCFE9FFFA0EDBCFEAFF980E84
:10054000EE6E010E56D0010EDB6ADF6A080EDF5C2C
:100550001DE2DF28E76EFD0EDBCFE9FFFE0EDBCFED
:10056000EAFFE750E926000EEA22EF50E66E010EA0
:10057000DBCFE6FFE66A42EC0CF0E552E552E552CD
:10058000AAEC0DF0010EDB2ADF2AE0D7AAEC0DF071
:100590004AD8030EDB6AFB0EDBCFE9FFFC0EDBCF94
:1005A000EAFF810E31D09EC1A7F19FC1A8F1A0C181
:1005B000A9F1A1C1AAF1A2C1ABF1A3C1ACF1A4C13F
:1005C000ADF1A5C1AEF1080EF36E030EF3CFDBFF64
:1005D000FB0EDBCFE9FFFC0EDBCFEAFF820EEF6EF6
:1005E000F90EDBCFE9FFFA0EDBCFEAFFA70EEE6EC6
:1005F000010EED6E0AD0030EDB6AFB0EDBCFE9FFC6
:10060000FC0EDBCFEAFF920EEF6E030EDB50106E96
:10061000040EE15C02E2E16AE552E16E1050E5523F
:10062000E7CFD9FF1200000EE66EE66A75EC0CF01B
:10063000E552E55201019E6F9F6BAAEC0DF09EC141
:100640009FF101019E6B010EE66EE66A75EC0CF0FF
:10065000E552E552106E116AE85001019E131150E7
:100660009F13AAEC0DF0020EE66EE66A75EC0CF034
:10067000E552E5520101A06FA16BAAEC0DF0A0C1FB
:10068000A1F10101A06B030EE66EE66A75EC0CF0B9
:10069000E552E552106E116AE8500101A0131150A5
:1006A000A113AAEC0DF0040EE66EE66A75EC0CF0F0
:1006B000E552E5520101A26FA36BAAEC0DF0A2C1B5
:1006C000A3F10101A26B050EE66EE66A75EC0CF073
:1006D000E552E552106E116AE8500101A213115063
:1006E000A313AAEC0DF0060EE66EE66A75EC0CF0AC
:1006F000E552E5520101A46FA56BAAEC0DF0A4C16F
:10070000A5F10101A46B070EE66EE66A75EC0CF02C
:10071000E552E552106E116AE8500101A413115020
:06072000A513AAEF0DF085
:0A072600D9CFE6FFE1CFD9FF020EA4
:10073000E12655EC08F0FE0EDBCF01F1FD0EDBCF1C
:1007400002F1FC0EDBCF03F1FB0EDBCF04F1F90E5F
:10075000DBCF81F1FA0EDBCF82F129D8DE6ADD6AC8
:10076000DECF10F0DDCF11F0D890115004E61A0E54
:10077000105C000E11580FE2DECF10F0DDCF11F04B
:10078000410E1024E66E70EC08F0E552DF2A010EEF
:10079000E7E3DB2AE5D78BEC08F0020EE15C02E22E
:1007A000E16AE552E16EE552E7CFD9FF120055EC60
:1007B00008F001017D6B7E6B010E006F7F6B80691D
:1007C00087C183F188C184F189C185F18AC186F12D
:1007D0008B6F1200D9CFE6FFE1CFD9FF060EE126DD
:1007E000DF6A010100518B5D09E1000507E0030E9E
:1007F000005D04E08007805102E13FD08069005134
:10080000030A01E1A6D0010A12E0030A01E0A2D026
:10081000D8EC08F0000903E0F4EC08F0DF6E010109
:100820000151DF5C01E097D07D6B020E90D0D8ECD7
:1008300008F0000901E191D001018069F4EC08F0B1
:10084000DF6E01010251DF5C6FE1020EDB6A030E15
:10085000DB68D950030FE66E000EDA20E66E87D80B
:10086000E552E552E76E020EE7CFDBFFDB50020AEE
:1008700052E0030A04E0010A55E199DF6ED001015C
:100880008151821146E0D950040FE66E000EDA2045
:10089000E66E7F0EE66E010EE66E070EE66E010E48
:1008A000E66E05D082C1FAFF01018151F96EFADFCF
:1008B000106E060EE15E105001017E6F010E416F59
:1008C0007E2B7FC142F17E2BDE52020EDD6E7E5109
:1008D000F36E010EDBCFF4FFF350F45C23E2040E61
:1008E000DBCFE9FF050EDBCFEAFFEF50E66E010E2E
:1008F000DB50EA6A410FE96E010EEA22E552E75049
:10090000EF6E040EDB2A050E01E3DB2A010EDB2A63
:10091000DED74DDF07D00101010E416F7E2B7FC175
:1009200042F17E2B010112D07D517D2BEA6A050F29
:10093000E96E010EEA22DFCFEFFF3C0E7D5D0BE397
:10094000010E416F7E2B900E426F7E2B030E006FC7
:1009500002D056D82CDF00C18BF1060EE15C02E21A
:10096000E16AE552E16EE552E7CFD9FF1200D9CF37
:10097000E6FFE1CFD9FF020EE12601017D05EA6A1B
:10098000050FE96E010EEA22EFCFDFFF010EDB6AF1
:10099000050505E0FF0E055D02E0000E25D07D0592
:1009A000E66E050EE66E010EE66E9DD8E552E55246
:1009B000E552E76E010EE7CFDBFFDB50DF5C0BE1BA
:1009C00001017D077D51EA6A050FE96E010EEA22F9
:1009D000EF6A010E09D0FD0EDBCFE9FFFE0EDBCF83
:1009E000EAFF910EEF6E020E106E020EE15C02E263
:1009F000E16AE552E16E1050E552E7CFD9FF1200EF
:100A0000D9CFE6FFE1CFD9FF020EE126DF6A010E62
:100A1000DB6A7EC1E6FF410EE66E010EE66E63D82C
:100A2000E552E552E552DF6E03C1E6FF70EC08F0D7
:100A3000E552010EDB6A01017E51F36E010EDBCF40
:100A4000F4FFF350F45C0FE2010EDB50EA6A410F51
:100A5000E96E010EEA22EF50E66E70EC08F0E55206
:100A6000010EDB2AE8D7DFCFE6FF70EC08F0E55295
:100A700004C1E6FF70EC08F0E5528BEC08F00400CE
:100A8000020EE15C02E2E16AE552E16EE552E7CF77
:100A9000D9FF1200D9CFE6FFE1CFD9FFFD0EDBCFA2
:100AA000F6FFFE0EDBCFF7FF0800F55016E0FD0E57
:100AB000DBCFF6FFFE0EDBCFF7FF0800F550E66E4A
:100AC00070EC08F0E552FD0EDBCFF6FFDB2AFE0EE0
:100AD000DBCFF7FFE3E3DB2AE1D78BEC08F0E5524D
:100AE000E7CFD9FF1200D9CFE6FFE1CFD9FF030E40
:100AF000E126DF6A010EDB6AFC0EDB50F36E010EAD
:100B0000DBCFF4FFF350F45C12E2010EDB50E76E32
:100B1000FD0EDBCFE9FFFE0EDBCFEAFFE750E92653
:100B2000000EEA22EF50DF1A010EDB2AE5D7DF5074
:100B3000106E030EE15C02E2E16AE552E16E1050D4
:080B4000E552E7CFD9FF1200D6
:080B4800D9CFE6FFE1CFD9FF90
:100B5000050EE126FE0EDB50080802E2000E64D00E
:100B6000FE0EDBCFC1F1DF6A0101C151DF5C0AE299
:100B7000DF50EA6AB90FE96E010EEA22F5C1EFFF14
:100B8000DF2AF2D7B10EC76F010EC86FDF6A0B0EF6
:100B9000DF5C47E2010EDB6AFE0EDB50F36E010EF6
:100BA000DBCFF4FFF350F45C15E2DF50EA6AEB0FA1
:100BB000E96E010EEA22EF50E66E010EDB50EA6AA2
:100BC000B10FE96E010EEA22E552E750EF6E010E19
:100BD000DB2AE2D7020EDB6A640EF36E020EDBCF75
:100BE000F4FFF350F45C1BE22BD8030EF36EDB6EC4
:100BF000040EDB6A030EDBCF10F0DB06040EDBCF46
:100C000011F001E2DB061050111006E00A0EE66E4C
:100C100018EC00F0E552EED7020EDB2ADDD7DF2A12
:100C2000B6D70101C26B010E106E050EE15C02E247
:100C3000E16AE552E16E1050E552E7CFD9FF1200AC
:100C40000101B051010A14E0010A01E01200C25191
:100C5000EA6AC725E96EC851EA22EF50E66E3CD930
:100C6000E5520101C22BC151C25D2BE3C26B1200E0
:100C7000C251EA6AC725E96EC851EA22EF50E66E12
:100C80002BD9E5520101C22BC151C25D01E3C26BF8
:100C9000C32B000EC423C551C35DC651C45911E313
:100CA000C36BC46BB10EC71907E1010EC81904E18B
:100CB000B90EC76F010E03D0B10EC76F010EC86F1A
:100CC00012001200D9CFE6FFE1CFD9FFE652DF6A6A
:100CD000DF6A0101C151DF5C16E2DF50E76EFD0EF5
:100CE000DBCFE9FFFE0EDBCFEAFFE750E926000E7F
:100CF000EA22EF50E66E1AD9E552000902E1000E31
:100D000040D0DF2AE6D7DF6AC151DF5C38E2DF502E
:100D1000E76EFD0EDBCFE9FFFE0EDBCFEAFFE7500B
:100D2000E926000EEA22EF50200809E1DF50EA6AC6
:100D3000B10FE96E010EEA22F5C1EFFF1ED0DF50C0
:100D4000E76EFD0EDBCFE9FFFE0EDBCFEAFFE750DB
:100D5000E926000EEA22EF50D00FEA6AEB0FE96EA7
:100D6000010EEA22EF50E66EDF50EA6AB10FE96E3B
:100D7000010EEA22E552E750EF6EDF2AC5D7C26BBB
:100D8000010EE552E552E7CFD9FF1200D9CFE6FFB9
:100D9000E1CFD9FFE652DF6ADF6A0101C151DF5CB2
:100DA00019E2DF50E76EFD0EDBCFE9FFFE0EDBCF71
:100DB000EAFFE750E926000EEA22EF50E66EDF5028
:100DC000EA6AB10FE96E010EEA22E552E750EF6ED2
:100DD000DF2AE3D7C26BE552E552E7CFD9FF120015
:100DE000D9CFE6FFE1CFD9FFE652DF6AFE0EDBCFB7
:100DF00010F00101C151D880105407E3FD0EDBCF84
:100E0000E6FF94D8E552000902E1000E23D0FD0E62
:100E1000DB5020080AE1FE0EDB50EA6AB10FE96EF2
:100E2000010EEA22F5C1EFFF14D0FD0EDB50D00F0A
:100E3000EA6AEB0FE96E010EEA22EF50E66EFE0E53
:100E4000DB50EA6AB10FE96E010EEA22E552E75083
:100E5000EF6E010EE552E552E7CFD9FF1200D9CF70
:100E6000E6FFE1CFD9FFFD0EDBCFC5F1FE0EDBCFF4
:100E7000C6F1010E0F0B010105E0D890C633C53352
:100E8000E806FBE10101C36BC46B010EB06FE552D4
:100E9000E7CFD9FF12000101B10EC76F010EC86F75
:100EA000B06B1200D9CFE6FFE1CFD9FFE652DF6A7F
:100EB0000101C151DF5C0AE2DF50EA6AB10FE96E5D
:100EC000010EEA22F5C1EFFFDF2AF2D7C26BE5522D
:100ED000E552E7CFD9FF1200D9CFE6FFE1CFD9FF26
:100EE00081908192819481968198819AFE0EDB5047
:100EF000836E0101C251050A14E0010A10E0070ADD
:100F00000CE0010A08E0030A04E0010A0BE1818019
:100F100009D0818207D0818405D0818603D0818861
:100F200001D0818AE552E7CFD9FF1200D9CFE6FF81
:100F3000E1CFD9FFE652DF6AFE0EDB5020080CE05D
:100F4000300EF36EFE0EDBCFF4FFF350F45C06E3DD
:100F5000FE0EDB50390802E3010EDF6EDF50E55272
:080F6000E552E7CFD9FF1200B2
:080F6800DACFE4FFE2CFDAFF6B
:100F7000E9CFE4FFEACFE4FFF6CFE4FFF7CFE4FFE9
:100F8000F5CFE4FFF3CFE4FFF4CFE4FFFACFE4FFC3
:100F900000EE00F0100EE80403E3EECFE4FFFBD711
:100FA00000EE10F0040EE80403E3EECFE4FFFBD7FD
:100FB000E652D9CFE6FFE1CFD9FFE652B8EC0CF00C
:100FC000DF6E02013F513F2BEA6A420FE96E020ECB
:100FD000EA22DFCFEFFF3C0E3F5D01E33F6B412B89
:100FE000E552E552E7CFD9FFE55200EE13F0040ECB
:100FF000E80403E3E5CFEDFFFBD700EE0FF0100EA2
:10100000E80403E3E5CFEDFFFBD7E5CFFAFFE5CF3B
:10101000F4FFE5CFF3FFE5CFF5FFE5CFF7FFE5CF31
:10102000F6FFE5CFEAFFE5CFE9FFE5CFDAFF1100F4
:10103000DACFE4FFE2CFDAFFE9CFE4FFEACFE4FF63
:10104000E652D9CFE6FFE1CFD9FFE65202010251C5
:1010500005E1ACA2FED78494AC9A1BD00151EA6A98
:10106000030FE96E020EEA22EFCFDFFFDF50AD6E15
:10107000012B3C0E015D01E3016B000EE76E0219CE
:10108000E8AE02D0023503D0E750D880025501E225
:101090000207E552E552E7CFD9FFE552E5CFEAFF77
:1010A000E5CFE9FFE5CFDAFF1100D9CFE6FFE1CFC9
:1010B000D9FFE6527C0EDF6E810EE66EE66ADFCF68
:1010C000E6FF8EEC0BF0E552E552E552D08EAC8A8D
:1010D000AC9EF28C9F8AE552E552E7CFD9FF120011
:1010E000D9CFE6FFE1CFD9FFACA2FED70201005174
:1010F000002BEA6A030FE96E020EEA22FE0EDBCF36
:10110000EFFF022B3C0E005D01E3006B010EE55288
:10111000E7CFD9FF1200D9CFE6FFE1CFD9FF020E0A
:10112000E12684840A0EE66E96EC0DF0E552000E80
:101130000201E76E0219E8AE02D0023503D0E75093
:10114000D880025523E20151EA6A030FE96E020ECC
:10115000EA22010EEFCFDBFFACA2FED7010EDB507F
:10116000AD6EACA2FED70201012B3C0E015D01E386
:10117000016B000EE76E0219E8AE02D0023503D013
:10118000E750D8800255D3E20207D1D784940A0EE3
:10119000E66E96EC0DF0E552106E020EE15C02E296
:1011A000E16AE552E16E1050E552E7CFD9FF120037
:1011B000D9CFE6FFE1CFD9FFE652DF6A9D9A000E54
:1011C0000201E76E4119E8AE02D0413503D0E75085
:1011D000D880415502E2010EDF6E9D8ADF50E55254
:1011E000E552E7CFD9FF1200D9CFE6FFE1CFD9FF13
:1011F000E6529D9A02014051402BEA6A420FE96E85
:10120000020EEA22EFCFDFFF3C0E405D01E3406BB0
:10121000000EE76E4119E8AE02D0413503D0E75029
:10122000D880415501E241079D8ADF50E552E552E1
:06123000E7CFD9FF120018
:0A123600DACFE4FFE2CFDAFFE9CFE0
:10124000E4FFEACFE4FFF6CFE4FFF7CFE4FFF5CF0A
:10125000E4FFF3CFE4FFF4CFE4FFFACFE4FF00EEC6
:1012600000F0100EE80403E3EECFE4FFFBD700EE3E
:1012700010F0040EE80403E3EECFE4FFFBD7E652E0
:10128000F2940101E52B000EE623E72BE823E92B7E
:10129000EA23DF51E01107E005D0E0C1FAFF0101C8
:1012A000DF51F96EFADFDDC1E6FFDEC1E6FFF3ECE8
:1012B0000CF0E552E552E55200EE13F0040EE8049E
:1012C00003E3E5CFEDFFFBD700EE0FF0100EE804CF
:1012D00003E3E5CFEDFFFBD7E5CFFAFFE5CFF4FF62
:1012E000E5CFF3FFE5CFF5FFE5CFF7FFE5CFF6FF5D
:1012F000E5CFEAFFE5CFE9FFE5CFDAFF1100DACF6E
:10130000E4FFE2CFDAFFE9CFE4FFEACFE4FFF6CF74
:10131000E4FFF7CFE4FFF5CFE4FFF3CFE4FFF4CF32
:10132000E4FFFACFE4FF00EE00F0100EE80403E360
:10133000EECFE4FFFBD700EE10F0040EE80403E369
:10134000EECFE4FFFBD7E6529E90E1C1E6FFE2C19B
:10135000E6FFD7EC0CF0E552E5520101E351E41150
:1013600007E005D0E4C1FAFF0101E351F96EFADFAD
:10137000E55200EE13F0040EE80403E3E5CFEDFFC1
:10138000FBD700EE0FF0100EE80403E3E5CFEDFF0E
:10139000FBD7E5CFFAFFE5CFF4FFE5CFF3FFE5CFCD
:1013A000F5FFE5CFF7FFE5CFF6FFE5CFEAFFE5CFA5
:1013B000E9FFE5CFDAFF1100D9CFE6FFE1CFD9FF92
:1013C0009F0EE66E0FEC0DF0E552FD0EDBCFDDF16A
:1013D000FE0EDBCFDEF1FB0EDBCFDFF1FC0EDBCF51
:1013E000E0F1FD0EDBCFE6FFFE0EDBCFE6FFF3EC18
:1013F0000CF0E552E552E552E7CFD9FF1200D9CF04
:10140000E6FFE1CFD9FFC50EE66E97EC0CF0E55292
:10141000FD0EDBCFE6FFFE0EDBCFE6FFD7EC0CF0D8
:10142000E552E5529F80FD0EDBCFE1F1FE0EDBCFF2
:10143000E2F1FB0EDBCFE3F1FC0EDBCFE4F1E55292
:06144000E7CFD9FF120006
:0A144600FD0EE66E840EE66EA30EA6
:10145000E66E0BEC0CF0E552E552E5529D8C9F8C4C
:10146000B0EF0DF09D9C02017E055EE17F2BA1ECAB
:101470000DF0F3CF10F0F4CF11F002018851E96EB6
:10148000EA6AD890E936EA36800EE926020EEA22A8
:10149000F350EE261150ED22200E7F5D41E388517E
:1014A000E96EEA6AD890E936EA36800EE926020E3D
:1014B000EA22EECF10F0EFCF11F0050ED8901132E6
:1014C0001032E804FBE102018851E96EEA6AD89023
:1014D000E936EA36840EE926020EEA2210C0EEFF53
:1014E00011C0EDFF8851E96EEA6AD890E936EA3614
:1014F000800EE926020EEA22EE6AED6A7F6B882BE7
:10150000020E885D01E3886B8851010A04E0010A3C
:1015100007E1870E01D08F0EE66E2BEC0DF0E55241
:10152000B0EC0DF002017E6B9D8C1200D9CFE6FF6E
:10153000E1CFD9FF020EE1269D9CFE0EEA6ADB3464
:10154000FE0BEA36E96E840EE926020EEA22EECFA1
:10155000DEFFEDCFDDFF9D8CDECF10F0DDCF11F093
:1015600010C0F3FF11C0F4FF020EE15C02E2E16A79
:10157000E552E16EE552E7CFD9FF1200DACFE4FF82
:10158000E6520201010E7E6F9E9CE552E5CFDAFF26
:02159000110048
:0E159200D9CFE6FFE1CFD9FF090EE126070E03
:1015A000DB6A080EDB6A58EC0DF0060EE66EA4EC62
:1015B00005F0E552000EE66EE66ADF0EE66EB10E4D
:1015C000E66EDCEC09F0E552E552E552E552400EDC
:1015D000E66E0C0EE66E770EE66EEC0EE66EFFEC37
:1015E00009F0E552E552E552E552E60EE66E040ECC
:1015F000E66EDD0EE66ECC0EE66EBB0EE66EAA0E55
:10160000E66E93EC03F0106E060EE15E105023ECD4
:101610000AF065EC00F015EC00F001010A0EE75D40
:10162000000EE85905E30101E76BE86B070EDB2AC2
:10163000040EF36E070EDBCFF4FFF350F45C06E309
:1016400032EC0AF069EC00F0070EDB6A0101FA0ED9
:10165000E55D000EE65905E38CEC0DF00101E56B4C
:10166000E66BEAEC03F00400D8D7090EE15C02E275
:0E167000E16AE552E16EE552E7CFD9FF1200C4
:02167E00500E0C
:10168000F66E000EF76E000EF86E01010900F550BF
:10169000FB6F0900F550FC6F03E1FB6701D03DD003
:1016A0000900F550F66F0900F550F76F0900F55085
:1016B000F86F09000900F550E96E0900F550EA6E6F
:1016C000090009000900F550F96F0900F550FA6F9B
:1016D00009000900F6CFFDF1F7CFFEF1F8CFFFF1D9
:1016E000F6C1F6FFF7C1F7FFF8C1F8FF0101F953A2
:1016F00002E1FA5307E00900F550EE6EF907F8E24F
:10170000FA07F9D7FDC1F6FFFEC1F7FFFFC1F8FFE9
:0C1710000101FB07000EFC5BBFD71200BC
:04171C00D9CFE6FF3C
:10172000DACFE6FFE1CFD9FFE2CFDAFFAC6AAB6AEE
:10173000FD0EDBB0AC88DBA202D0AC8CAB8CDBB492
:10174000AC8EDBA602D0AB8801D0AB8ADBB8AC8410
:101750009E98DBBAAB86DBAC02D09D8A01D09D9A05
:101760009E9ADBAE02D09D8801D09D98FB0EDB5087
:10177000AF6EFB0EFC0EDBCF11F011C010F0116A42
:101780001050B06EAC8AAB8E949C948EAC50100B03
:1017900004E0AC50800B01E1948CE552E5CFDAFF18
:0617A000E7CFD9FF1200A3
:0A17A60004500902F3CF00F0F4CF65
:1017B00001F00A02F3500126000EF420026E0450DC
:1017C0000B02F3500226000EF420036E04500C02AC
:1017D000F350032605500902F3500126F45002226B
:1017E000000E032205500A02F3500226F450032291
:1017F00005500B02F350032606500902F35002264F
:10180000F450032206500A02F3500326075009023F
:06181000F3500326120054
:0A181600D9CFE6FFDACFE6FFE1CFFD
:10182000D9FFE2CFDAFFC26AC06AFC0EDB407F0B51
:101830003C0BC26EFC0EDB38F00B300B106EFB0E57
:10184000DB500F0B1010C16EFD0EDB50040DF3507A
:10185000380B116EFD0EDB380F0B070B106EFD0EF3
:10186000DB50800B10101110C06EFC0EDBAE03D0ED
:101870009E9C9D8CF28CC280E552E5CFDAFFE7CFCB
:04188000D9FF12007A
:0C188400D9CFE6FFDACFE6FFE1CFD9FFB5
:10189000E2CFDAFFE652DF6AFF0EE76EFC0EDBCF27
:1018A00010F0E75010161050A96EFB0EDB50A86E1A
:1018B000A69EA69CA684F250800B01E0010EDF6E6E
:1018C000F29E550EA76EAA0EA76EA682A6B2FED7EE
:1018D000DF50E8B0F28EE8A0F29EA694E552E55201
:0A18E000E5CFDAFFE7CFD9FF1200D1
:0618EA00D9CFE6FFDACFC2
:1018F000E6FFE1CFD9FFE2CFDAFFFF0EE76EFC0E85
:10190000DBCF10F0FD0EDBCF11F0E7501016116A9F
:101910001050A96EA69CA69EA68000000000A850AC
:0E19200000D0E552E5CFDAFFE7CFD9FF120085
:02192E00D9CF0F
:10193000E6FFDACFE6FFE1CFD9FFE2CFDAFFFD0E17
:10194000DB507E0BCD6EFD0EDBAC02D0CD8E01D018
:10195000CD9ECF6ACE6A9E90DBAE02D09D8001D034
:101960009D90CD80E552E5CFDAFFE7CFD9FF120099
:10197000D9CFE6FFDACFE6FFE1CFD9FFE2CFDAFF3A
:10198000E652F20E02018B17ABAC03D08B91ABB0D9
:101990008B81ABB48B85ABB28B87AE50DF6EDF50E3
:0E19A000E552E552E5CFDAFFE7CFD9FF12009E
:0219AE00D9CF8F
:1019B000E6FFDACFE6FFE1CFD9FFE2CFDAFFE6526A
:1019C000E652FC0EDBCFDEFFDBCFDDFF010EDB508E
:1019D000CF6EDF50CE6EE552E552E552E5CFDAFF2D
:0619E000E7CFD9FF120061
:0A19E600D9CFE6FFDACFE6FFE1CF2C
:1019F000D9FFE2CFDAFFE652E652FC0EDBCFDEFF84
:101A0000DBCFDDFF010EDB50D76EDF50D66EE55227
:0E1A1000E552E552E5CFDAFFE7CFD9FF12002D
:021A1E00D9CF1E
:101A2000E6FFDACFE6FFE1CFD9FFE2CFDAFFFD0E26
:101A3000DB507F0BD56ED76AD66AF294FD0EDBAE13
:101A400002D0F28A01D0F29AD58EE552E5CFDAFFC4
:061A5000E7CFD9FF1200F0
:0A1A5600D9CFE6FFDACFE6FFE1CFBB
:101A6000D9FFE2CFDAFFC30EC214106EFD0EDB40C9
:101A70007F0B3C0B1010C26EE552E5CFDAFFE7CFCB
:041A8000D9FF120078
:0C1A8400036A026A100EE76ED890063666
:101A90000736023603360B50025C0C50035805E340
:101AA0000B50025E0C50035A062AE72EF0D71200A4
:101AB0000D0EC16E969492809282956A9390939245
:101AC000939493969398939A939C939E92969288CC
:061AD000818C819E1200D2
:0A1AD600000EF36E00EE00F0060EA5
:101AE00001D81200EA6002D0EE6AFCD7F350E96038
:061AF0001200EE6AFCD7B3
:0A1AF60010EE80F020EE80F0F86A98
:101B00000F9C3FEC0BF003EC00F0C9EC0AF0FBD7A4
:021B10001200C1
:0E1B120002018D6B120002018D0503E18D6B47
:0C1B200080961200010E8D6F808612006E
:041B2C00FF0EE35075
:101B3000E84E1200000000D000D000D0E82EFAD706
:021B4000120091
:0E1B4200C450136E126AC3501210F36E13C01B
:041B5000F4FF12008C
:061B5400A6B2FED712004C
:051B5A00434F4D0A009D
:011B5F000085
:041B6000C28212002B
:0C1B640000000000000000000000000075
:101B70000000000000000000000000000000000065
:101B80000000000000000000000000000000000055
:101B90000000000000000000000000000000000045
:101BA0000000000000000000000000000000000035
:101BB0000000000000000000000000000000000025
:101BC0000000000000000000000000000000000015
:101BD0000000000000000000000000000000000005
:021BE000000003
:0E1BE2000000000000000000000000000000F5
:101BF00000000000000000000000000000000000E5
:101C000000000000000000000000000000000000D4
:101C100000000000000000000000000000000000C4
:101C200000000000000000000000000000000000B4
:101C300000000000000000000000000000000000A4
:101C40000000000000000000000000000000000094
:101C50000000000000000000000000000000000084
:0E1C6000000000000000000000000000000076
:021C6E00000074
:101C70000000000000000000000000000000000064
:071C8000000000000000005D
:091C870000000000000000000054
:051C900000000000004F
:0B1C95004944454F4E494353003F06B1
:091CA0005B4F666D7D077F6F004C
:071CA9003F065B4F666D7DF5
:041CB000077F6F003B
:021CB400FFFF30
:0A1CB6000000000000000000000024
:101CC0000000000000000000000000000000000014
:0A1CD000000000000000000000000A
:061CDA0000000000000004
:051CE0000000000000FF
:020000040030CA
:0100010006F8
:010002001BE2
:0100030012EA
:010005008179
:010006008178
:010008000FE8
:01000900C036
:01000A000FE6
:01000B00E014
:01000C000FE4
:01000D0040B2
:00000001FF
