:020000040000FA
:0600000070EF0EF012008B
:020006001200E6
:08000800F2A402D0F9EF09F0A7
:100010009EA002D062EF0AF09EAC02D0B3EF0BF0CC
:100020009EAA02D07AEF08F01200D08EF28E120053
:10003000FF0EE350146E480E01D04C0EE76EE72E13
:10004000FED7E76AE72EFED7142EF7D7000012007E
:100050000A00C21E00008C0200000B000000C01E3F
:100060000000A102000002000000B51E0000F50122
:1000700000000B0000002F1D0000A5020000010081
:100080000000A11E0000E101000014000000931E0A
:1000900000007E0200000E0000006F1E0000BD0187
:1000A0000000240000003E1E00008C010000310012
:1000B0000000B21D0000000100008C000000341D93
:0A00C0000000000200007E000000B6
:0600CA000101C16B08DB1F
:1000D0001200D9CFE6FFE1CFD9FFE652DF6A060E64
:1000E000DF5C0AE2DF50EA6AC20FE96E010EEA2223
:1000F0003F0EEF6EDF2AF3D7010EE66E8AEC0BF0AF
:10010000E552F3CFBFF1F4CFC0F1A9D9BFC1E6FFEB
:10011000C0C1E6FF74D8E552E5520101C12BE66A81
:100120008AEC0BF0E552F3CFBDF1F4CFBEF197D9D5
:10013000BDC1E6FFBEC1E6FF62D8E552E55201014E
:10014000C16BC20EE66E010EE66E33EC05F0E552B1
:10015000E5520101E05114084BE28050100B01E020
:10016000010E000A40E0010A01E040D00101D15136
:100170000101BD5D0101D2510101BE5909E3010137
:10018000BD510101CF5D0101BE510101D05904E211
:100190000101010ED76F18D00101D5510101BF5DDA
:1001A0000101D6510101C05909E30101BF5101010B
:1001B000D35D0101C0510101D45904E20101010ED6
:1001C000D76F02D00101D76B0101D751010A06E0B8
:1001D000010A01E006D0818C819E04D0818E819C31
:1001E00001D000D004D0819C819E01D000D002D0EB
:1001F0000101E02BE552E552E7CFD9FF1200D9CF3C
:10020000E6FFE1CFD9FF0101C15103E10101C86B54
:1002100006D00101C10503E10101030EC86FFD0E07
:10022000DBCF10F0FE0EDBCF11F00A0E0B6E0C6A66
:1002300010C006F011C007F025EC0EF002C010F05F
:1002400003C011F00101C851EA6AC20FE96E010E44
:10025000EA2210C0EFFF0101C851EA6AC20FE96E3D
:10026000010EEA22EF50090A01E1C1D0010A01E1C1
:10027000ABD00F0A01E195D0010A01E17FD0030A5A
:100280006AE0010A55E0070A40E0010A2BE0030A90
:1002900016E0010A01E0BED00101C851EA6AC20FAE
:1002A000E96E010EEA223F0EEF6E0101C851EA6AC3
:1002B000C90FE96E010EEA22300EEF6EACD00101DB
:1002C000C851EA6AC20FE96E010EEA22060EEF6E0D
:1002D0000101C851EA6AC90FE96E010EEA22310E26
:1002E000EF6E99D00101C851EA6AC20FE96E010EA2
:1002F000EA225B0EEF6E0101C851EA6AC90FE96E8E
:10030000010EEA22320EEF6E86D00101C851EA6A70
:10031000C20FE96E010EEA224F0EEF6E0101C851C5
:10032000EA6AC90FE96E010EEA22330EEF6E73D04E
:100330000101C851EA6AC20FE96E010EEA22660E97
:10034000EF6E0101C851EA6AC90FE96E010EEA2297
:10035000340EEF6E60D00101C851EA6AC20FE96E37
:10036000010EEA226D0EEF6E0101C851EA6AC90F53
:10037000E96E010EEA22350EEF6E4DD00101C85133
:10038000EA6AC20FE96E010EEA227D0EEF6E0101EC
:10039000C851EA6AC90FE96E010EEA22360EEF6E05
:1003A0003AD00101C851EA6AC20FE96E010EEA2291
:1003B000070EEF6E0101C851EA6AC90FE96E010E1E
:1003C000EA22370EEF6E27D00101C851EA6AC20F48
:1003D000E96E010EEA227F0EEF6E0101C851EA6A52
:1003E000C90FE96E010EEA22380EEF6E14D001013A
:1003F000C851EA6AC20FE96E010EEA226F0EEF6E73
:100400000101C851EA6AC90FE96E010EEA22390EEC
:10041000EF6E01D000D00101C82BD950FD0FE96E5D
:10042000FF0EDA20EA6E0A0E0B6E0C6AEECF06F0B3
:10043000EDCF07F025EC0EF006C0EEFF07C0EDFF94
:10044000000ED880EE54000EED5401E2E8D6010112
:10045000C38F0101C68FE552E7CFD9FF1200D9CF74
:10046000E6FFE1CFD9FF040EE126DE6ADE6ADE6A2E
:10047000DD6ADD52DD520101C151010A42E0010A8B
:1004800001E07ED00101D70EBF5D000EC05904E22D
:100490000101BF6BC06B34D0BFC104F0C0C105F017
:1004A000D70E045E000E055A066A076A950E096E9D
:1004B000040E0A6E0B6A0C6AB6EC0CF000C0DEFF8C
:1004C00001C0DEFF02C0DEFF03C0DDFFDD52DD52F2
:1004D000D9CFE9FFDACFEAFFEECF10F0EECF11F07F
:1004E000EECF12F0EFCF13F00A0ED8901332123283
:1004F00011321032E806F9E110C0BFF111C0C0F1AD
:1005000040D00101D70EBD5D000EBE5904E20101CD
:10051000BD6BBE6B34D0BDC104F0BEC105F0D70EBB
:10052000045E000E055A066A076A950E096E040EEF
:100530000A6E0B6A0C6AB6EC0CF000C0DEFF01C05C
:10054000DEFF02C0DEFF03C0DDFFDD52DD52D9CF8A
:10055000E9FFDACFEAFFEECF10F0EECF11F0EECFE9
:1005600012F0EFCF13F00A0ED8901332123211327C
:100570001032E806F9E110C0BDF111C0BEF101D0A2
:1005800000D0040EE15C02E2E16AE552E16EE55260
:10059000E7CFD9FF1200D9CFE6FFE1CFD9FF040E94
:1005A000E126FD0EDBCFE9FFFE0EDBCFEAFF020EF8
:1005B000EFCFDBFF030EDB6A020EDB50820A4EE058
:1005C000030A1BE0010A01E071D0060EF36E030E70
:1005D000F3CFDBFFFB0EDBCFE9FFFC0EDBCFEAFF47
:1005E000800EEF6EF90EDBCFE9FFFA0EDBCFEAFFEC
:1005F000C90EEE6E010EED6E64D0010EDB6ADF6A8D
:10060000080EDF5C1DE2DF28E76EFD0EDBCFE9FFA1
:10061000FE0EDBCFEAFFE750E926000EEA22EF509C
:10062000E66E010EDBCFE6FFE66A25EC0DF0E55243
:10063000E552E55292EC0EF0010EDB2ADF2AE0D7FC
:1006400092EC0EF04DD8030EDB6AFB0EDBCFE9FF18
:10065000FC0EDBCFEAFF810EEF6E33D0CFC1D8F1B5
:10066000D0C1D9F1D1C1DAF1D2C1DBF1D3C1DCF112
:10067000D4C1DDF1D5C1DEF1D6C1DFF1080EF36ED4
:10068000030EF3CFDBFFFB0EDBCFE9FFFC0EDBCF6E
:10069000EAFF820EEF6EF90EDBCFE9FFFA0EDBCF39
:1006A000EAFFD80EEE6E010EED6E0BD0030EDB6A84
:1006B000FB0EDBCFE9FFFC0EDBCFEAFF920EEF6E05
:1006C00000D0030EDB5000D0106E040EE15C02E29D
:1006D000E16AE552E16E1050E552E7CFD9FF120012
:1006E000000EE66EE66A58EC0DF0E552E5520101A7
:1006F000CF6FD06B92EC0EF0CFC1D0F10101CF6B78
:10070000010EE66EE66A58EC0DF0E552E552106E09
:10071000116A10500101CF1311500101D01392EC56
:100720000EF0020EE66EE66A58EC0DF0E552E55268
:100730000101D16FD26B92EC0EF0D1C1D2F1010167
:10074000D16B030EE66EE66A58EC0DF0E552E55209
:10075000106E116A10500101D11311500101D21312
:1007600092EC0EF0040EE66EE66A58EC0DF0E552DF
:10077000E5520101D36FD46B92EC0EF0D3C1D4F1EA
:100780000101D36B050EE66EE66A58EC0DF0E552FA
:10079000E552106E116A10500101D313115001017E
:1007A000D41392EC0EF0060EE66EE66A58EC0DF0ED
:1007B000E552E5520101D56FD66B92EC0EF0D5C132
:1007C000D6F10101D56B070EE66EE66A58EC0DF026
:1007D000E552E552106E116A10500101D513115007
:0A07E0000101D61392EC0EF0120096
:0607EA00D9CFE6FFE1CFCC
:1007F000D9FF050EE126FE0EDB50140802E2000EC2
:1008000068D0FE0EDBCFB5F1DF6A0101B551DF5CC8
:100810000AE2DF50EA6AA10FE96E010EEA22FFC187
:10082000EFFFDF2AF2D701018D0EBB6F010EBC6F07
:10083000DF6A0B0EDF5C49E2010EDB6AFE0EDB5065
:10084000F36E010EDBCFF4FFF350F45C15E2DF50E2
:10085000EA6AF50FE96E010EEA22EF50E66E010E2C
:10086000DB50EA6A8D0FE96E010EEA22E552E7508D
:10087000EF6E010EDB2AE2D7020EDB6A640EF36E26
:10088000020EDBCFF4FFF350F45C1DE22ED8030E12
:10089000F36E030EF3CFDBFF040EDB6A030EDBCF38
:1008A00010F0DB06040EDBCF11F001E2DB06105086
:1008B000111006E00A0EE66E18EC00F0E552EED7D5
:1008C000020EDB2ADBD7DF2AB4D70101B66B010E9B
:1008D00000D0106E050EE15C02E2E16AE552E16EC5
:1008E0001050E552E7CFD9FF120001018C51010AE7
:1008F00019E0010A01E04ED00101B6510101EA6A96
:10090000BB25E96EBC51EA22EF50E66E59D9E5529B
:100910000101B62B0101B5510101B65D02E30101F0
:10092000B66B39D00101B6510101EA6ABB25E96E07
:10093000BC51EA22EF50E66E43D9E5520101B62BD5
:100940000101B5510101B65D02E30101B66B010180
:10095000B72B000EB8230101B9510101B75D0101A8
:10096000BA510101B85915E30101B76BB86B8D0E8F
:100970000101BB1902E1010EBC1906E10101A10E42
:10098000BB6F010EBC6F05D001018D0EBB6F010E58
:10099000BC6F01D000D01200D9CFE6FFE1CFD9FF64
:1009A000E652DF6ADF6A0101B551DF5C16E2DF5013
:1009B000E76EFD0EDBCFE9FFFE0EDBCFEAFFE7506F
:1009C000E926000EEA22EF50E66E31D9E552000921
:1009D00002E1000E43D0DF2AE6D7DF6A0101B551FC
:1009E000DF5C38E2DF50E76EFD0EDBCFE9FFFE0E85
:1009F000DBCFEAFFE750E926000EEA22EF5020089D
:100A000009E1DF50EA6A8D0FE96E010EEA22FFC1AB
:100A1000EFFF1ED0DF50E76EFD0EDBCFE9FFFE0ECD
:100A2000DBCFEAFFE750E926000EEA22EF50D00FB5
:100A3000EA6AF50FE96E010EEA22EF50E66EDF502A
:100A4000EA6A8D0FE96E010EEA22E552E750EF6E79
:100A5000DF2AC4D70101B66B010E00D0E552E55282
:100A6000E7CFD9FF1200D9CFE6FFE1CFD9FFE65299
:100A7000DF6ADF6A0101B551DF5C19E2DF50E76E22
:100A8000FD0EDBCFE9FFFE0EDBCFEAFFE750E926E4
:100A9000000EEA22EF50E66EDF50EA6A8D0FE96E33
:100AA000010EEA22E552E750EF6EDF2AE3D701019B
:100AB000B66BE552E552E7CFD9FF1200D9CFE6FF7A
:100AC000E1CFD9FFE652DF6AFE0EDBCF10F0010165
:100AD000B551D880105402E2000E2DD0FD0EDBCFB0
:100AE000E6FFA5D8E552000902E1000E24D0FD0E74
:100AF000DB5020080AE1FE0EDB50EA6A8D0FE96E3A
:100B0000010EEA22FFC1EFFF14D0FD0EDB50D00F23
:100B1000EA6AF50FE96E010EEA22EF50E66EFE0E6C
:100B2000DB50EA6A8D0FE96E010EEA22E552E750CA
:100B3000EF6E010E00D0E552E552E7CFD9FF12006B
:100B4000D9CFE6FFE1CFD9FFFD0EDBCFB9F1FE0E25
:100B5000DBCFBAF1010E0F0B010105E0D890BA33DB
:100B6000B933E806FBE10101B76BB86B0101010E77
:100B70008C6FE552E7CFD9FF120001018D0EBB6FDC
:100B8000010EBC6F01018C6B1200D9CFE6FFE1CFE3
:100B9000D9FFE652DF6A0101B551DF5C0AE2DF509E
:100BA000EA6A8D0FE96E010EEA22FFC1EFFFDF2A2C
:100BB000F2D70101B66BE552E552E7CFD9FF12003B
:100BC000D9CFE6FFE1CFD9FF8190819281948196C0
:100BD0008198819A140EE66E7EEC0EF0E552FE0EC0
:100BE000DB50836E0101B651050A15E0010A11E0E0
:100BF000070A0DE0010A09E0030A05E0010A01E025
:100C00000CD081800BD0818209D0818407D081866D
:100C100005D0818803D0818A01D000D0140EE66E01
:100C20007EEC0EF0E552E552E7CFD9FF1200D9CFA6
:100C3000E6FFE1CFD9FFE652DF6AFE0EDB50200867
:100C400003E1010EDF6E0ED0300EF36EFE0EDBCF31
:100C5000F4FFF350F45C06E3FE0EDB50390802E3C8
:100C6000010EDF6EDF5000D0E552E552E7CFD9FF2D
:020C7000120070
:0E0C7200D9CFE6FFE1CFD9FF020EE12624EC38
:100C800009F0FE0EDBCF01F1FD0EDBCF02F1FC0E11
:100C9000DBCF03F1FB0EDBCF04F1F90EDBCF81F1EB
:100CA000FA0EDBCF82F129D8DE6ADD6ADECF10F0E2
:100CB000DDCF11F0D890115004E61A0E105C000E32
:100CC00011580FE2DECF10F0DDCF11F0410E1024ED
:100CD000E66E3FEC09F0E552DF2A010E01E3DB2A64
:100CE000E5D75EEC09F0020EE15C02E2E16AE55252
:100CF000E16EE552E7CFD9FF120024EC09F00101C3
:100D00007D6B01017E6B0101010E006F01017F6BA4
:100D10000101806987C183F188C184F189C185F1AE
:100D20008AC186F100C18BF11200D9CFE6FFE1CF75
:100D3000D9FF060EE126DF6A0101005101018B5D3A
:100D40000FE1010100050CE0030E0101005D08E068
:100D5000010180070101805102E1CFDFCCD002D038
:100D60000101806901010051030A01E1BDD0010ABE
:100D700014E0030A01E0BBD0B0EC09F0000903E085
:100D8000CDEC09F0DF6E01010151DF5C05E10101ED
:100D90007D6B0101020E006FACD0B0EC09F00009D0
:100DA00001E1A9D001018069CDEC09F0DF6E0101FC
:100DB0000251DF5C01E07CD0020EDB6A030EDB68CF
:100DC000D950030FE66E000EDA20E66E9ED8E5528B
:100DD000E552E76E020EE7CFDBFF020EDB50020AA0
:100DE00058E0030A05E0010A01E05DD086DF83D008
:100DF0000101815182114BE0D950040FE66E000EC3
:100E0000DA20E66E7F0EE66E010EE66E070EE66EE7
:100E1000010EE66E05D082C1FAFF01018151F96E23
:100E2000FADF106E060EE15E105001017E6F0101C7
:100E3000010E416F01017E2B7FC142F101017E2B2A
:100E4000DE52020EDD6E01017E51F36E010EDBCF2C
:100E5000F4FFF350F45C1AE2040EDBCFE9FF050E59
:100E6000DBCFEAFFEF50E66E010EDB50EA6A410F7E
:100E7000E96E010EEA22E552E750EF6E040EDB2A1E
:100E8000050E01E3DB2A010EDB2ADDD701D035DFB9
:100E90000BD00101010E416F01017E2B7FC142F198
:100EA00001017E2B01D000D00101030E006F1BD089
:100EB00001017D517D2BEA6A050FE96E010EEA22E0
:100EC000DFCFEFFF3C0E01017D5D0DE30101010E5F
:100ED000416F01017E2B0101900E426F01017E2BBB
:100EE0000101030E006F05D060D807DF02D005DFD7
:100EF00000D000C18BF1060EE15C02E2E16AE5522E
:100F0000E16EE552E7CFD9FF1200D9CFE6FFE1CF7E
:100F1000D9FF020EE12601017D05EA6A050FE96E9F
:100F2000010EEA22EFCFDFFF010EDB6A01010505AA
:100F300006E0FF0E0101055D02E0000E2AD001016E
:100F40007D05E66E050EE66E010EE66EA1D8E55251
:100F5000E552E552E76E010EE7CFDBFF010EDB50F5
:100F6000DF5C0DE101017D0701017D51EA6A050F9A
:100F7000E96E010EEA22EF6A010E0BD00AD0FD0ED7
:100F8000DBCFE9FFFE0EDBCFEAFF910EEF6E020E24
:100F900000D0106E020EE15C02E2E16AE552E16E01
:100FA0001050E552E7CFD9FF1200D9CFE6FFE1CFCD
:100FB000D9FF020EE126DF6A010EDB6A7EC1E6FF81
:100FC000410EE66E010EE66E63D8E552E552E5523B
:100FD000DF6E03C1E6FF3FEC09F0E552010EDB6A6C
:100FE00001017E51F36E010EDBCFF4FFF350F45C90
:100FF0000FE2010EDB50EA6A410FE96E010EEA22B0
:10100000EF50E66E3FEC09F0E552010EDB2AE8D71F
:10101000DFCFE6FF3FEC09F0E55204C1E6FF3FEC0D
:1010200009F0E5525EEC09F00400020EE15C02E218
:10103000E16AE552E16EE552E7CFD9FF1200D9CF60
:10104000E6FFE1CFD9FFFD0EDBCFF6FFFE0EDBCFD3
:10105000F7FF0800F55016E0FD0EDBCFF6FFFE0EA1
:10106000DBCFF7FF0800F550E66E3FEC09F0E552E4
:10107000FD0EDBCFF6FFDB2AFE0EDBCFF7FF01E331
:10108000DB2AE1D75EEC09F0E552E7CFD9FF120089
:10109000D9CFE6FFE1CFD9FF030EE126DF6A010ECB
:1010A000DB6AFC0EDB50F36E010EDBCFF4FFF35076
:1010B000F45C12E2010EDB50E76EFD0EDBCFE9FFC0
:1010C000FE0EDBCFEAFFE750E926000EEA22EF50E2
:1010D000DF1A010EDB2AE5D7DF5000D0106E030EB9
:1010E000E15C02E2E16AE552E16E1050E552E7CFC1
:0410F000D9FF120012
:0C10F400DACFE4FFE2CFDAFFE9CFE4FF3F
:10110000EACFE4FFF6CFE4FFF7CFE4FFF5CFE4FF4B
:10111000F3CFE4FFF4CFE4FFFACFE4FF00EE00F0FA
:10112000100EE80403E3EECFE4FFFBD700EE10F06F
:10113000040EE80403E3EECFE4FFFBD7E652D9CF79
:10114000E6FFE1CFD9FFE6529BEC0DF0DF6E020126
:101150003F513F2BEA6A420FE96E020EEA22DFCFCF
:10116000EFFF3C0E02013F5D02E302013F6B020113
:10117000412BE552E552E7CFD9FFE55200EE13F0DF
:10118000040EE80403E3E5CFEDFFFBD700EE0FF01C
:10119000100EE80403E3E5CFEDFFFBD7E5CFFAFF40
:1011A000E5CFF4FFE5CFF3FFE5CFF5FFE5CFF7FFA0
:1011B000E5CFF6FFE5CFEAFFE5CFE9FFE5CFDAFFC0
:1011C0001100DACFE4FFE2CFDAFFE9CFE4FFEACFA4
:1011D000E4FFE652D9CFE6FFE1CFD9FFE6520201A4
:1011E000025105E1ACA2FED78494AC9A21D0020151
:1011F0000151EA6A030FE96E020EEA22EFCFDFFF28
:10120000DF50AD6E0201012B3C0E0201015D02E3D5
:101210000201016B000E0201E76E0219E8AE02D076
:10122000023503D0E750D880025502E202010207DE
:10123000E552E552E7CFD9FFE552E5CFEAFFE5CF2A
:10124000E9FFE5CFDAFF1100D9CFE6FFE1CFD9FF03
:10125000E6527C0EDF6E810EE66EE66ADFCFE6FFB9
:1012600071EC0CF0E552E552E552D08EAC8AAC9EA2
:10127000F28C9F8AE552E552E7CFD9FF1200D9CF11
:10128000E6FFE1CFD9FFACA2FED702010051002B4F
:10129000EA6A030FE96E020EEA22FE0EDBCFEFFFD1
:1012A0000201022B3C0E0201005D02E30201006B11
:1012B000010E00D0E552E7CFD9FF1200D9CFE6FFEB
:1012C000E1CFD9FF020EE12684840A0EE66E7EECA1
:1012D0000EF0E552000E0201E76E0219E8AE02D0F0
:1012E000023503D0E750D880025528E202010151AF
:1012F000EA6A030FE96E020EEA22010EEFCFDBFF6E
:10130000ACA2FED7010EDB50AD6EACA2FED702013F
:10131000012B3C0E0201015D02E30201016B000E94
:101320000201E76E0219E8AE02D0023503D0E750A1
:10133000D880025502E202010207CCD784940A0E3B
:10134000E66E7EEC0EF0E552106E020EE15C02E2FB
:10135000E16AE552E16E1050E552E7CFD9FF120085
:10136000D9CFE6FFE1CFD9FFE652DF6A9D9A000EA2
:101370000201E76E4119E8AE02D0413503D0E750D3
:10138000D880415502E2010EDF6E9D8ADF5000D009
:10139000E552E552E7CFD9FF1200D9CFE6FFE1CF02
:1013A000D9FFE6529D9A02014051402BEA6A420F52
:1013B000E96E020EEA22EFCFDFFF3C0E0201405D34
:1013C00002E30201406B000E0201E76E4119E8AE34
:1013D00002D0413503D0E750D880415502E20201E6
:1013E00041079D8ADF5000D0E552E552E7CFD9FF93
:0213F0001200E9
:0E13F200DACFE4FFE2CFDAFFE9CFE4FFEACF83
:10140000E4FFF6CFE4FFF7CFE4FFF5CFE4FFF3CF3F
:10141000E4FFF4CFE4FFFACFE4FF00EE00F0100E9B
:10142000E80403E3EECFE4FFFBD700EE10F0040E78
:10143000E80403E3EECFE4FFFBD7E652F2940201A7
:10144000862B000E87230201882B000E89230201C0
:101450008A2B000E8B2302018051811107E005D0F9
:1014600081C2FAFF02018051F96EFADF7EC2E6FF07
:101470007FC2E6FFD6EC0DF0E552E552E55200EEF4
:1014800013F0040EE80403E3E5CFEDFFFBD700EE15
:101490000FF0100EE80403E3E5CFEDFFFBD7E5CF37
:1014A000FAFFE5CFF4FFE5CFF3FFE5CFF5FFE5CF9A
:1014B000F7FFE5CFF6FFE5CFEAFFE5CFE9FFE5CFA0
:1014C000DAFF1100DACFE4FFE2CFDAFFE9CFE4FF81
:1014D000EACFE4FFF6CFE4FFF7CFE4FFF5CFE4FF78
:1014E000F3CFE4FFF4CFE4FFFACFE4FF00EE00F027
:1014F000100EE80403E3EECFE4FFFBD700EE10F09C
:10150000040EE80403E3EECFE4FFFBD7E6529E901F
:1015100082C2E6FF83C2E6FFBAEC0DF0E552E55267
:1015200002018451851107E005D085C2FAFF02014E
:101530008451F96EFADFE55200EE13F0040EE80470
:1015400003E3E5CFEDFFFBD700EE0FF0100EE8044C
:1015500003E3E5CFEDFFFBD7E5CFFAFFE5CFF4FFDF
:10156000E5CFF3FFE5CFF5FFE5CFF7FFE5CFF6FFDA
:10157000E5CFEAFFE5CFE9FFE5CFDAFF1100D9CFEC
:10158000E6FFE1CFD9FF9F0EE66EF2EC0DF0E552DB
:10159000FD0EDBCF7EF2FE0EDBCF7FF2FB0EDBCF4C
:1015A00080F2FC0EDBCF81F2FD0EDBCFE6FFFE0EFC
:1015B000DBCFE6FFD6EC0DF0E552E552E552E7CF82
:1015C000D9FF1200D9CFE6FFE1CFD9FFC50EE66EF5
:1015D0007AEC0DF0E552FD0EDBCFE6FFFE0EDBCF21
:1015E000E6FFBAEC0DF0E552E5529F80FD0EDBCF31
:1015F00082F2FE0EDBCF83F2FB0EDBCF84F2FC0E19
:0C160000DBCF85F2E552E7CFD9FF1200E6
:04160C00FD0EE66E7B
:10161000840EE66EA30EE66EEEEC0CF0E552E5529B
:10162000E5529D8C9F8C98EC0EF012009D9C02015F
:101630008C056EE102018D2B89EC0EF0F3CF10F0DA
:10164000F4CF11F002019651E96EEA6AD890E936BA
:10165000EA368E0EE926020EEA221050EE261150CE
:10166000ED22200E02018D5D4FE302019651E96EDD
:10167000EA6AD890E936EA368E0EE926020EEA22A8
:10168000EECF10F0EFCF11F0050ED89011321032DE
:10169000E804FBE102019651E96EEA6AD890E93666
:1016A000EA36920EE926020EEA2210C0EEFF11C0C1
:1016B000EDFF02019651E96EEA6AD890E936EA3602
:1016C0008E0EE926020EEA22EE6AED6A02018D6BA9
:1016D0000201962B020E0201965D02E30201966B57
:1016E00002019651010A09E0010A01E00CD0870EBF
:1016F000E66E0EEC0EF0E55207D08F0EE66E0EECA5
:101700000EF0E55201D000D098EC0EF002018C6B87
:101710009D8C1200D9CFE6FFE1CFD9FF020EE12662
:101720009D9CFE0EEA6ADB34FE0BEA36E96E920EF1
:10173000E926020EEA22EECFDEFFEDCFDDFF9D8C23
:10174000DECF10F0DDCF11F010C0F3FF11C0F4FFB9
:1017500000D0020EE15C02E2E16AE552E16EE55280
:10176000E7CFD9FF1200DACFE4FFE2CFDAFFE6528B
:101770000201010E8C6F9E9CE552E5CFDAFF11004D
:10178000D9CFE6FFE1CFD9FF090EE126070EDB6ACC
:10179000080EDB6A3BEC0EF0060EE66EF5EC03F08D
:1017A000E552000EE66EE66ADF0EE66EB10EE66EFC
:1017B000BFEC0AF0E552E552E552E552EA0EE66E5C
:1017C000080EE66E770EE66EEC0EE66EE2EC0AF0C0
:1017D000E552E552E552E55206EC0BF065EC00F0FF
:1017E00015EC00F002010A0E885D000E895905E330
:1017F0000201886B896B070EDB2A0A0EF36E070E57
:10180000DBCFF4FFF350F45C06E316EC0BF069EC6D
:1018100000F0070EDB6A0201FA0E865D000E8759A2
:1018200005E364EC0EF00201866B876B0400DAD7E7
:10183000090EE15C02E2E16AE552E16EE552E7CFB2
:04184000D9FF1200BA
:0C184400500EF66E000EF76E000EF86EEF
:1018500002010900F5509C6F0900F5509D6F03E1EE
:101860009C6701D03DD00900F550976F0900F550F5
:10187000986F0900F550996F09000900F550E96E5D
:101880000900F550EA6E090009000900F5509A6F49
:101890000900F5509B6F09000900F6CF9EF2F7CFC3
:1018A0009FF2F8CFA0F297C2F6FF98C2F7FF99C255
:1018B000F8FF02019A5302E19B5307E00900F5503B
:1018C000EE6E9A07F8E29B07F9D79EC2F6FF9FC219
:1018D000F7FFA0C2F8FF02019C07000E9D5BBFD777
:0218E0001200F4
:0E18E200D9CFE6FFDACFE6FFE1CFD9FFE2CFA4
:1018F000DAFFAC6AAB6AFD0EDBB0AC88DBA202D0CB
:10190000AC8CAB8CDBB4AC8EDBA602D0AB8801D048
:10191000AB8ADBB8AC849E98DBBAAB86DBAC02D07A
:101920009D8A01D09D9A9E9ADBAE02D09D8801D0FF
:101930009D98FB0EDB50AF6EFB0EFC0EDBCF11F063
:1019400011C010F0116A1050B06EAC8AAB8E949C2E
:10195000948EAC50100B04E0AC50800B01E1948CE1
:0C196000E552E5CFDAFFE7CFD9FF120017
:04196C000450090218
:10197000F3CF00F0F4CF01F00A02F3500126000E7D
:10198000F420026E04500B02F3500226000EF420E5
:10199000036E04500C02F350032605500902F35065
:1019A0000126F4500222000E032205500A02F350D1
:1019B0000226F450032205500B02F3500326065072
:1019C0000902F3500226F450032206500A02F35093
:0C19D000032607500902F3500326120002
:0419DC00D9CFE6FF7A
:1019E000DACFE6FFE1CFD9FFE2CFDAFFC26AC06A01
:1019F000FC0EDB407F0B3C0BC26EFC0EDB38F00BA9
:101A0000300B106EFB0EDB500F0B1010C16EFD0E75
:101A1000DB50040DF350380B116EFD0EDB380F0B4D
:101A2000070B106EFD0EDB50800B10101110C06EF6
:101A3000FC0EDBAE03D09E9C9D8CF28CC280E552E6
:0A1A4000E5CFDAFFE7CFD9FF12006F
:061A4A00D9CFE6FFDACF60
:101A5000E6FFE1CFD9FFE2CFDAFFE652DF6AFF0E01
:101A6000E76EFC0EDBCF10F0E75010161050A96E99
:101A7000FB0EDB50A86EA69EA69CA684F250800B9F
:101A800001E0010EDF6EF29E550EA76EAA0EA76E44
:101A9000A682A6B2FED7DF50E8B0F28EE8A0F29E92
:101AA000A694E552E552E5CFDAFFE7CFD9FF120061
:101AB000D9CFE6FFDACFE6FFE1CFD9FFE2CFDAFFF9
:101AC000FF0EE76EFC0EDBCF10F0FD0EDBCF11F04A
:101AD000E7501016116A1050A96EA69CA69EA6800B
:101AE00000000000A85000D0E552E5CFDAFFE7CFB4
:041AF000D9FF120008
:0C1AF400D9CFE6FFDACFE6FFE1CFD9FF43
:101B0000E2CFDAFFFD0EDB507E0BCD6EFD0EDBACBF
:101B100002D0CD8E01D0CD9ECF6ACE6A9E90DBAE34
:101B200002D09D8001D09D90CD80E552E5CFDAFFB7
:061B3000E7CFD9FF12000F
:0A1B3600D9CFE6FFDACFE6FFE1CFDA
:101B4000D9FFE2CFDAFFE652F20E0201A317ABACE7
:101B500003D0A391ABB0A381ABB4A385ABB2A387F1
:101B6000AE50DF6EDF50E552E552E5CFDAFFE7CF4A
:041B7000D9FF120087
:0C1B7400D9CFE6FFDACFE6FFE1CFD9FFC2
:101B8000E2CFDAFFE652E652FC0EDBCFDEFFDBCF20
:101B9000DDFF010EDB50CF6EDF50CE6EE552E55219
:0C1BA000E552E5CFDAFFE7CFD9FF1200D5
:041BAC00D9CFE6FFA8
:101BB000DACFE6FFE1CFD9FFE2CFDAFFE652E65215
:101BC000FC0EDBCFDEFFDBCFDDFF010EDB50D76E7F
:101BD000DF50D66EE552E552E552E5CFDAFFE7CFAA
:041BE000D9FF120017
:0C1BE400D9CFE6FFDACFE6FFE1CFD9FF52
:101BF000E2CFDAFFFD0EDB507F0BD56ED76AD66AD7
:101C0000F294FD0EDBAE02D0F28A01D0F29AD58EAC
:0C1C1000E552E5CFDAFFE7CFD9FF120064
:041C1C00D9CFE6FF37
:101C2000DACFE6FFE1CFD9FFE2CFDAFFC30EC2146D
:101C3000106EFD0EDB407F0B3C0B1010C26EE552A8
:0A1C4000E5CFDAFFE7CFD9FF12006D
:061C4A00036A026A100E9D
:101C5000E76ED89006360736023603360B50025C24
:101C60000C50035805E30B50025E0C50035A062A31
:061C7000E72EF0D7120080
:0A1C76000D0EC16E700ED3129B8C90
:101C8000969492809282956A93909392939493966D
:101C90009398939A939C939E96909288819C819E10
:021CA000120030
:0E1CA200000EF36E00EE00F0060E01D81200E8
:101CB000EA6002D0EE6AFCD7F350E9601200EE6AE7
:021CC000FCD74F
:0E1CC2000201A56B12000201A50504E102015A
:101CD000A56B849004D00201010EA56F84801200D0
:101CE00010EE80F020EE80F0F86A0F9C22EC0CF0F1
:0C1CF00003EC00F0C0EC0BF0FBD712007E
:041CFC00FF0EE350A4
:101D0000E84E1200000000D000D000D0E82EFAD734
:021D10001200BF
:0E1D1200C450136E126AC3501210F36E13C049
:041D2000F4FF1200BA
:061D2400A6B2FED712007A
:051D2A00434F4D0A00CB
:011D2F0000B3
:041D3000C282120059
:0C1D3400000000000000000000000000A3
:101D40000000000000000000000000000000000093
:101D50000000000000000000000000000000000083
:101D60000000000000000000000000000000000073
:101D70000000000000000000000000000000000063
:101D80000000000000000000000000000000000053
:101D90000000000000000000000000000000000043
:101DA0000000000000000000000000000000000033
:021DB000000031
:0E1DB200000000000000000000000000000023
:101DC0000000000000000000000000000000000013
:101DD0000000000000000000000000000000000003
:101DE00000000000000000000000000000000000F3
:101DF00000000000000000000000000000000000E3
:101E000000000000000000000000000000000000D2
:101E100000000000000000000000000000000000C2
:101E200000000000000000000000000000000000B2
:0E1E30000000000000000000000000000000A4
:021E3E000000A2
:101E40000000000000000000000000000000000092
:101E50000000000000000000000000000000000082
:0F1E600000000000000000000000000000000073
:011E6F000072
:101E70000000000000000000000000000000000062
:101E80000000000000000000000000000000000052
:031E90000000004F
:0D1E93000000000000000000000000000042
:011EA0000041
:0F1EA1004944454F4E494353003F065B4F666D22
:051EB0007D077F6F00BB
:0B1EB5003F065B4F666D7D077F6F00EE
:021EC000FFFF22
:0B1EC200000000000000000000000015
:020000040030CA
:0100010008F6
:010002001BE2
:0100030012EA
:010005008179
:010006008178
:010008000FE8
:01000900C036
:01000A000FE6
:01000B00E014
:01000C000FE4
:01000D0040B2
:00000001FF
