:020000040000FA
:060000004DEF0EF01200AE
:020006001200E6
:08000800F2A402D0C7EF09F0D9
:100010009EA002D030EF0AF09EAC02D081EF0BF030
:100020009EAA02D048EF08F01200D08EF28E120085
:10003000FF0EE350146E480E01D04C0EE76EE72E13
:10004000FED7E76AE72EFED7142EF7D7000012007E
:100050000A00581E0000EA0200000B000000561EB5
:1000600000007E010000020000004B1E0000DF02C5
:1000700000000B000000E91C0000810100000100ED
:100080000000371E0000B002000014000000291E0E
:100090000000C40200000E000000051E0000000267
:1000A000000024000000F81D0000D20200000D0036
:1000B00000006C1D0000240200008C000000EE1CFB
:0A00C0000000000100007E000000B7
:0600CA000201046B08DBDB
:1000D0001200D9CFE6FFE1CFD9FFE652DF6A060E64
:1000E000DF5C0AE2DF50EA6A050FE96E020EEA22DF
:1000F0003F0EEF6EDF2AF3D7010EE66E58EC0BF0E1
:10010000E552F3CF02F2F4CF03F2A9D902C2E6FF1F
:1001100003C2E6FF74D8E552E5520201042BE66AF9
:1001200058EC0BF0E552F3CF00F2F4CF01F297D97F
:1001300000C2E6FF01C2E6FF62D8E552E5520201C5
:10014000046B050EE66E020EE66E60EC07F0E552FB
:10015000E5520201235101084BE28050100B01E0EF
:10016000010E000A40E0010A01E040D002011451F2
:100170000201005D020115510201015909E302016A
:1001800000510201125D020101510201135904E202
:100190000201010E1A6F18D0020118510201025D0E
:1001A000020119510201035909E30201025102013E
:1001B000165D020103510201175904E20201010E0A
:1001C0001A6F02D002011A6B02011A51010A06E0ED
:1001D000010A01E006D0818C819E04D0818E819C31
:1001E00001D000D004D0819C819E01D000D002D0EB
:1001F0000201232BE552E552E7CFD9FF1200D9CFF8
:10020000E6FFE1CFD9FF0201045103E102010B6BCC
:1002100006D00201040503E10201030E0B6FFD0E7F
:10022000DBCF10F0FE0EDBCF11F00A0E0B6E0C6A66
:1002300010C006F011C007F007EC0EF002C010F07D
:1002400003C011F002010B51EA6A050FE96E020EBC
:10025000EA2210C0EFFF02010B51EA6A050FE96EB6
:10026000020EEA22EF50090A01E1C1D0010A01E1C0
:10027000ABD00F0A01E195D0010A01E17FD0030A5A
:100280006AE0010A55E0070A40E0010A2BE0030A90
:1002900016E0010A01E0BED002010B51EA6A050F27
:1002A000E96E020EEA223F0EEF6E02010B51EA6A7E
:1002B0000C0FE96E020EEA22300EEF6EACD0020196
:1002C0000B51EA6A050FE96E020EEA22060EEF6E86
:1002D00002010B51EA6A0C0FE96E020EEA22310E9E
:1002E000EF6E99D002010B51EA6A050FE96E020E1A
:1002F000EA225B0EEF6E02010B51EA6A0C0FE96E07
:10030000020EEA22320EEF6E86D002010B51EA6A2B
:10031000050FE96E020EEA224F0EEF6E02010B513D
:10032000EA6A0C0FE96E020EEA22330EEF6E73D00A
:1003300002010B51EA6A050FE96E020EEA22660E0F
:10034000EF6E02010B51EA6A0C0FE96E020EEA220F
:10035000340EEF6E60D002010B51EA6A050FE96EB0
:10036000020EEA226D0EEF6E02010B51EA6A0C0FCB
:10037000E96E020EEA22350EEF6E4DD002010B51EE
:10038000EA6A050FE96E020EEA227D0EEF6E0201A7
:100390000B51EA6A0C0FE96E020EEA22360EEF6E7E
:1003A0003AD002010B51EA6A050FE96E020EEA2209
:1003B000070EEF6E02010B51EA6A0C0FE96E020E96
:1003C000EA22370EEF6E27D002010B51EA6A050FC1
:1003D000E96E020EEA227F0EEF6E02010B51EA6A0D
:1003E0000C0FE96E020EEA22380EEF6E14D00201F5
:1003F0000B51EA6A050FE96E020EEA226F0EEF6EEC
:1004000002010B51EA6A0C0FE96E020EEA22390E64
:10041000EF6E01D000D002010B2BD950FD0FE96E19
:10042000FF0EDA20EA6E0A0E0B6E0C6AEECF06F0B3
:10043000EDCF07F007EC0EF006C0EEFF07C0EDFFB2
:10044000000ED880EE54000EED5401E2E8D6020111
:10045000068F0201098FE552E7CFD9FF1200D9CFED
:10046000E6FFE1CFD9FF040EE126DE6ADE6ADE6A2E
:10047000DD6ADD52DD5202010451010A42E0010A47
:1004800001E07ED00201D70E025D000E035904E2A6
:100490000201026B036B34D002C204F003C205F008
:1004A000D70E045E000E055A066A076A950E096E9D
:1004B000040E0A6E0B6A0C6A98EC0CF000C0DEFFAA
:1004C00001C0DEFF02C0DEFF03C0DDFFDD52DD52F2
:1004D000D9CFE9FFDACFEAFFEECF10F0EECF11F07F
:1004E000EECF12F0EFCF13F00A0ED8901332123283
:1004F00011321032E806F9E110C002F211C003F225
:1005000040D00201D70E005D000E015904E2020145
:10051000006B016B34D000C204F001C205F0D70EAD
:10052000045E000E055A066A076A950E096E040EEF
:100530000A6E0B6A0C6A98EC0CF000C0DEFF01C07A
:10054000DEFF02C0DEFF03C0DDFFDD52DD52D9CF8A
:10055000E9FFDACFEAFFEECF10F0EECF11F0EECFE9
:1005600012F0EFCF13F00A0ED8901332123211327C
:100570001032E806F9E110C000F211C001F201D01A
:1005800000D0040EE15C02E2E16AE552E16EE55260
:10059000E7CFD9FF1200D9CFE6FFE1CFD9FF040E94
:1005A000E126FD0EDBCFE9FFFE0EDBCFEAFF020EF8
:1005B000EFCFDBFF030EDB6A020EDB50820A4EE058
:1005C000030A1BE0010A01E071D0060EF36E030E70
:1005D000F3CFDBFFFB0EDBCFE9FFFC0EDBCFEAFF47
:1005E000800EEF6EF90EDBCFE9FFFA0EDBCFEAFFEC
:1005F0000C0EEE6E020EED6E64D0010EDB6ADF6A49
:10060000080EDF5C1DE2DF28E76EFD0EDBCFE9FFA1
:10061000FE0EDBCFEAFFE750E926000EEA22EF509C
:10062000E66E010EDBCFE6FFE66A07EC0DF0E55261
:10063000E552E5526FEC0EF0010EDB2ADF2AE0D71F
:100640006FEC0EF04DD8030EDB6AFB0EDBCFE9FF3B
:10065000FC0EDBCFEAFF810EEF6E33D012C21BF22D
:1006600013C21CF214C21DF215C21EF216C21FF2F2
:1006700017C220F218C221F219C222F2080EF36E3C
:10068000030EF3CFDBFFFB0EDBCFE9FFFC0EDBCF6E
:10069000EAFF820EEF6EF90EDBCFE9FFFA0EDBCF39
:1006A000EAFF1B0EEE6E020EED6E0BD0030EDB6A40
:1006B000FB0EDBCFE9FFFC0EDBCFEAFF920EEF6E05
:1006C00000D0030EDB5000D0106E040EE15C02E29D
:1006D000E16AE552E16E1050E552E7CFD9FF120012
:1006E000000EE66EE66A3AEC0DF0E552E5520201C4
:1006F000126F136B6FEC0EF012C213F20201126B49
:10070000010EE66EE66A3AEC0DF0E552E552106E27
:10071000116A1050020112131150020113136FECF1
:100720000EF0020EE66EE66A3AEC0DF0E552E55286
:100730000201146F156B6FEC0EF014C215F202017A
:10074000146B030EE66EE66A3AEC0DF0E552E552E4
:10075000106E116A1050020114131150020115138A
:100760006FEC0EF0040EE66EE66A3AEC0DF0E55220
:10077000E5520201166F176B6FEC0EF016C217F2FE
:100780000201166B050EE66EE66A3AEC0DF0E552D4
:10079000E552106E116A1050020116131150020139
:1007A00017136FEC0EF0060EE66EE66A3AEC0DF0EB
:1007B000E552E5520201186F196B6FEC0EF018C28A
:1007C00019F20201186B070EE66EE66A3AEC0DF0BC
:1007D000E552E552106E116A1050020118131150C3
:0A07E000020119136FEC0EF0120075
:0607EA00D9CFE6FFE1CFCC
:1007F000D9FF020EE126F2EC08F0FE0EDBCF25F267
:10080000FD0EDBCF26F2FC0EDBCF27F2FB0EDBCF9B
:1008100028F2F90EDBCFA5F2FA0EDBCFA6F229D82B
:10082000DE6ADD6ADECF10F0DDCF11F0D890115016
:1008300004E61A0E105C000E11580FE2DECF10F025
:10084000DDCF11F0410E1024E66E0DEC09F0E552FB
:10085000DF2A010E01E3DB2AE5D72CEC09F0020EBA
:10086000E15C02E2E16AE552E16EE552E7CFD9FFD1
:100870001200F2EC08F00201A16B0201A26B02016E
:10088000010E246F0201A36B0201A469ABC2A7F29F
:10089000ACC2A8F2ADC2A9F2AEC2AAF224C2AFF2B3
:1008A0001200D9CFE6FFE1CFD9FF060EE126DF6ABD
:1008B000020124510201AF5D0FE1020124050CE0A9
:1008C000030E0201245D08E00201A4070201A45105
:1008D00002E1CFDFCCD002D00201A4690201245191
:1008E000030A01E1BDD0010A14E0030A01E0BBD014
:1008F0007EEC09F0000903E09BEC09F0DF6E0201D9
:100900002551DF5C05E10201A16B0201020E246F9B
:10091000ACD07EEC09F0000901E1A9D00201A46984
:100920009BEC09F0DF6E02012651DF5C01E07CD018
:10093000020EDB6A030EDB68D950030FE66E000E71
:10094000DA20E66E9ED8E552E552E76E020EE7CF5A
:10095000DBFF020EDB50020A58E0030A05E0010A41
:1009600001E05DD086DF83D00201A551A6114BE0E6
:10097000D950040FE66E000EDA20E66EA30EE66E86
:10098000020EE66E2B0EE66E020EE66E05D0A6C2D5
:10099000FAFF0201A551F96EFADF106E060EE15E54
:1009A00010500201A26F0201010E656F0201A22B1D
:1009B000A3C266F20201A22BDE52020EDD6E02011C
:1009C000A251F36E010EDBCFF4FFF350F45C1AE298
:1009D000040EDBCFE9FF050EDBCFEAFFEF50E66E3A
:1009E000010EDB50EA6A650FE96E020EEA22E5525B
:1009F000E750EF6E040EDB2A050E01E3DB2A010E41
:100A0000DB2ADDD701D035DF0BD00201010E656F87
:100A10000201A22BA3C266F20201A22B01D000D0D8
:100A20000201030E246F1BD00201A151A12BEA6A1F
:100A3000290FE96E020EEA22DFCFEFFF3C0E020122
:100A4000A15D0DE30201010E656F0201A22B0201FF
:100A5000900E666F0201A22B0201030E246F05D0D7
:100A600060D807DF02D005DF00D024C2AFF2060E47
:100A7000E15C02E2E16AE552E16EE552E7CFD9FFBF
:100A80001200D9CFE6FFE1CFD9FF020EE126020125
:100A9000A105EA6A290FE96E020EEA22EFCFDFFF15
:100AA000010EDB6A0201290506E0FF0E0201295D45
:100AB00002E0000E2AD00201A105E66E290EE66EC4
:100AC000020EE66EA1D8E552E552E552E76E010E40
:100AD000E7CFDBFF010EDB50DF5C0DE10201A10778
:100AE0000201A151EA6A290FE96E020EEA22EF6AB9
:100AF000010E0BD00AD0FD0EDBCFE9FFFE0EDBCFDF
:100B0000EAFF910EEF6E020E00D0106E020EE15C55
:100B100002E2E16AE552E16E1050E552E7CFD9FFFB
:100B20001200D9CFE6FFE1CFD9FF020EE126DF6A3E
:100B3000010EDB6AA2C2E6FF650EE66E020EE66EED
:100B400063D8E552E552E552DF6E27C2E6FF0DECB1
:100B500009F0E552010EDB6A0201A251F36E010EAB
:100B6000DBCFF4FFF350F45C0FE2010EDB50EA6AD6
:100B7000650FE96E020EEA22EF50E66E0DEC09F009
:100B8000E552010EDB2AE8D7DFCFE6FF0DEC09F0D6
:100B9000E55228C2E6FF0DEC09F0E5522CEC09F015
:100BA0000400020EE15C02E2E16AE552E16EE55208
:100BB000E7CFD9FF1200D9CFE6FFE1CFD9FFFD0E75
:100BC000DBCFF6FFFE0EDBCFF7FF0800F55016E097
:100BD000FD0EDBCFF6FFFE0EDBCFF7FF0800F55072
:100BE000E66E0DEC09F0E552FD0EDBCFF6FFDB2AD9
:100BF000FE0EDBCFF7FF01E3DB2AE1D72CEC09F097
:100C0000E552E7CFD9FF1200D9CFE6FFE1CFD9FFF8
:100C1000030EE126DF6A010EDB6AFC0EDB50F36E89
:100C2000010EDBCFF4FFF350F45C12E2010EDB5057
:100C3000E76EFD0EDBCFE9FFFE0EDBCFEAFFE750EC
:100C4000E926000EEA22EF50DF1A010EDB2AE5D773
:100C5000DF5000D0106E030EE15C02E2E16AE55263
:0C0C6000E16E1050E552E7CFD9FF120002
:040C6C00D9CFE6FFF7
:100C7000E1CFD9FF050EE126FE0EDB50020802E2AD
:100C8000000E68D0FE0EDBCFD7F2DF6A0201D7512B
:100C9000DF5C0AE2DF50EA6AD50FE96E020EEA2253
:100CA000E9C2EFFFDF2AF2D70201D30EDD6F020E99
:100CB000DE6FDF6A0B0EDF5C49E2010EDB6AFE0EBF
:100CC000DB50F36E010EDBCFF4FFF350F45C15E262
:100CD000DF50EA6ADF0FE96E020EEA22EF50E66E9D
:100CE000010EDB50EA6AD30FE96E020EEA22E552EA
:100CF000E750EF6E010EDB2AE2D7020EDB6A640ECC
:100D0000F36E020EDBCFF4FFF350F45C1DE22ED83D
:100D1000030EF36E030EF3CFDBFF040EDB6A030E4C
:100D2000DBCF10F0DB06040EDBCF11F001E2DB06B7
:100D30001050111006E00A0EE66E18EC00F0E552B5
:100D4000EED7020EDB2ADBD7DF2AB4D70201D86B3D
:100D5000010E00D0106E050EE15C02E2E16AE55280
:100D6000E16E1050E552E7CFD9FF12000201D251D7
:100D7000010A19E0010A01E04ED00201D851020136
:100D8000EA6ADD25E96EDE51EA22EF50E66E45D9CA
:100D9000E5520201D82B0201D7510201D85D02E3CE
:100DA0000201D86B39D00201D8510201EA6ADD256F
:100DB000E96EDE51EA22EF50E66E2FD9E5520201CC
:100DC000D82B0201D7510201D85D02E30201D86B92
:100DD0000201D92B000EDA230201DB510201D95D99
:100DE0000201DC510201DA5915E30201D96BDA6B19
:100DF000D30E0201DD1902E1020EDE1906E1020145
:100E0000D50EDD6F020EDE6F05D00201D30EDD6F51
:100E1000020EDE6F01D000D01200D9CFE6FFE1CF85
:100E2000D9FFE652DF6ADF6A0201D751DF5C02E2D6
:100E3000DF2AFAD7DF6A0201D751DF5C38E2DF50E0
:100E4000E76EFD0EDBCFE9FFFE0EDBCFEAFFE750DA
:100E5000E926000EEA22EF50200809E1DF50EA6A95
:100E6000D30FE96E020EEA22E9C2EFFF1ED0DF5077
:100E7000E76EFD0EDBCFE9FFFE0EDBCFEAFFE750AA
:100E8000E926000EEA22EF50D00FEA6ADF0FE96E82
:100E9000020EEA22EF50E66EDF50EA6AD30FE96EE7
:100EA000020EEA22E552E750EF6EDF2AC4D70201B4
:100EB000D86B010E00D0E552E552E7CFD9FF120002
:100EC000D9CFE6FFE1CFD9FFE652DF6ADF6A020140
:100ED000D751DF5C19E2DF50E76EFD0EDBCFE9FF93
:100EE000FE0EDBCFEAFFE750E926000EEA22EF50C4
:100EF000E66EDF50EA6AD30FE96E020EEA22E5528F
:100F0000E750EF6EDF2AE3D70201D86BE552E552D6
:100F1000E7CFD9FF1200D9CFE6FFE1CFD9FFE652E4
:100F2000DF6AFE0EDBCF10F00201D751D8801054DB
:100F300002E2000E2DD0FD0EDBCFE6FF87D8E55292
:100F4000000902E1000E24D0FD0EDB5020080AE16A
:100F5000FE0EDB50EA6AD30FE96E020EEA22E9C206
:100F6000EFFF14D0FD0EDB50D00FEA6ADF0FE96E01
:100F7000020EEA22EF50E66EFE0EDB50EA6AD30F55
:100F8000E96E020EEA22E552E750EF6E010E00D044
:100F9000E552E552E7CFD9FF1200D9CFE6FFE1CF06
:100FA000D9FFFD0EDBCFDBF2FE0EDBCFDCF2010E54
:100FB0000F0B020105E0D890DC33DB33E806FBE1E0
:100FC0000201D96BDA6B0201010ED26FE552E7CF55
:100FD000D9FF12000201D30EDD6F020EDE6F020197
:100FE000D26B1200D9CFE6FFE1CFD9FFE652DF6A1C
:100FF0000201D751DF5C0AE2DF50EA6AD30FE96EE3
:10100000020EEA22E9C2EFFFDF2AF2D70201D86B13
:10101000E552E552E7CFD9FF1200D9CFE6FFE1CF85
:10102000D9FF81808182FE0EDB1C836E0201D851C4
:10103000010A05E0010A01E004D0819003D0819209
:1010400001D000D0E552E7CFD9FF1200D9CFE6FF9B
:10105000E1CFD9FFE652DF6AFE0EDB50200803E144
:10106000010EDF6E0ED0300EF36EFE0EDBCFF4FFFE
:10107000F350F45C06E3FE0EDB50390802E3010E88
:10108000DF6EDF5000D0E552E552E7CFD9FF120006
:10109000DACFE4FFE2CFDAFFE9CFE4FFEACFE4FF03
:1010A000F6CFE4FFF7CFE4FFF5CFE4FFF3CFE4FFA3
:1010B000F4CFE4FFFACFE4FF00EE00F0100EE804F6
:1010C00003E3EECFE4FFFBD700EE10F0040EE804DC
:1010D00003E3EECFE4FFFBD7E652D9CFE6FFE1CF43
:1010E000D9FFE6527DEC0DF0DF6E01013F513F2B41
:1010F000EA6A420FE96E010EEA22DFCFEFFF3C0EF3
:1011000001013F5D02E301013F6B0101412BE5520B
:10111000E552E7CFD9FFE55200EE13F0040EE804E4
:1011200003E3E5CFEDFFFBD700EE0FF0100EE80470
:1011300003E3E5CFEDFFFBD7E5CFFAFFE5CFF4FF03
:10114000E5CFF3FFE5CFF5FFE5CFF7FFE5CFF6FFFE
:10115000E5CFEAFFE5CFE9FFE5CFDAFF1100DACF0F
:10116000E4FFE2CFDAFFE9CFE4FFEACFE4FFE652A3
:10117000D9CFE6FFE1CFD9FFE6520101025105E1E7
:10118000ACA2FED78494AC9A21D001010151EA6A45
:10119000030FE96E010EEA22EFCFDFFFDF50AD6EE5
:1011A0000101012B3C0E0101015D02E30101016B14
:1011B000000E0101E76E0219E8AE02D0023503D03D
:1011C000E750D880025502E201010207E552E552DC
:1011D000E7CFD9FFE552E5CFEAFFE5CFE9FFE5CF5D
:1011E000DAFF1100D9CFE6FFE1CFD9FFE6527C0E3E
:1011F000DF6E810EE66EE66ADFCFE6FF53EC0CF0A1
:10120000E552E552E552D08EAC8AAC9EF28C9F8AB4
:10121000E552E552E7CFD9FF1200D9CFE6FFE1CF83
:10122000D9FFACA2FED701010051002BEA6A030FDF
:10123000E96E010EEA22FE0EDBCFEFFF0101022B69
:101240003C0E0101005D02E30101006B010E00D0C4
:10125000E552E7CFD9FF1200D9CFE6FFE1CFD9FFA2
:10126000020EE12684840A0EE66E5BEC0EF0E55277
:10127000000E0101E76E0219E8AE02D0023503D07C
:10128000E750D880025528E201010151EA6A030FB4
:10129000E96E010EEA22010EEFCFDBFFACA2FED712
:1012A000010EDB50AD6EACA2FED70101012B3C0E4E
:1012B0000101015D02E30101016B000E0101E76E16
:1012C0000219E8AE02D0023503D0E750D8800255AB
:1012D00002E201010207CCD784940A0EE66E5BECB1
:1012E0000EF0E552106E020EE15C02E2E16AE55298
:1012F000E16E1050E552E7CFD9FF1200D9CFE6FFDB
:10130000E1CFD9FFE652DF6A9D9A000E0101E76E38
:101310004119E8AE02D0413503D0E750D88041559D
:1013200002E2010EDF6E9D8ADF5000D0E552E552E9
:10133000E7CFD9FF1200D9CFE6FFE1CFD9FFE652C0
:101340009D9A01014051402BEA6A420FE96E010E5D
:10135000EA22EFCFDFFF3C0E0101405D02E3010115
:10136000406B000E0101E76E4119E8AE02D0413535
:1013700003D0E750D880415502E2010141079D8A20
:0E138000DF5000D0E552E552E7CFD9FF120052
:02138E00DACFB4
:10139000E4FFE2CFDAFFE9CFE4FFEACFE4FFF6CFE4
:1013A000E4FFF7CFE4FFF5CFE4FFF3CFE4FFF4CFA2
:1013B000E4FFFACFE4FF00EE00F0100EE80403E3D0
:1013C000EECFE4FFFBD700EE10F0040EE80403E3D9
:1013D000EECFE4FFFBD7E652F2940201CC2B000ED5
:1013E000CD230201CE2B000ECF230201D02B000E05
:1013F000D1230201C651C71107E005D0C7C2FAFFC9
:101400000201C651F96EFADFC4C2E6FFC5C2E6FFAB
:10141000B8EC0DF0E552E552E55200EE13F0040E83
:10142000E80403E3E5CFEDFFFBD700EE0FF0100E6D
:10143000E80403E3E5CFEDFFFBD7E5CFFAFFE5CF07
:10144000F4FFE5CFF3FFE5CFF5FFE5CFF7FFE5CFFD
:10145000F6FFE5CFEAFFE5CFE9FFE5CFDAFF1100C0
:10146000DACFE4FFE2CFDAFFE9CFE4FFEACFE4FF2F
:10147000F6CFE4FFF7CFE4FFF5CFE4FFF3CFE4FFCF
:10148000F4CFE4FFFACFE4FF00EE00F0100EE80422
:1014900003E3EECFE4FFFBD700EE10F0040EE80408
:1014A00003E3EECFE4FFFBD7E6529E90C8C2E6FF0F
:1014B000C9C2E6FF9CEC0DF0E552E5520201CA51AB
:1014C000CB1107E005D0CBC2FAFF0201CA51F96E79
:1014D000FADFE55200EE13F0040EE80403E3E5CF73
:1014E000EDFFFBD700EE0FF0100EE80403E3E5CFAD
:1014F000EDFFFBD7E5CFFAFFE5CFF4FFE5CFF3FF34
:10150000E5CFF5FFE5CFF7FFE5CFF6FFE5CFEAFF43
:10151000E5CFE9FFE5CFDAFF1100D9CFE6FFE1CF54
:10152000D9FF9F0EE66ED4EC0DF0E552FD0EDBCF39
:10153000C4F2FE0EDBCFC5F2FB0EDBCFC6F2FC0E13
:10154000DBCFC7F2FD0EDBCFE6FFFE0EDBCFE6FF03
:10155000B8EC0DF0E552E552E552E7CFD9FF1200A5
:10156000D9CFE6FFE1CFD9FFC50EE66E5CEC0DF0FA
:10157000E552FD0EDBCFE6FFFE0EDBCFE6FF9CEC77
:101580000DF0E552E5529F80FD0EDBCFC8F2FE0E56
:10159000DBCFC9F2FB0EDBCFCAF2FC0EDBCFCBF206
:0815A000E552E7CFD9FF12006C
:0815A800FD0EE66E840EE66EF6
:1015B000A30EE66ED0EC0CF0E552E552E5529D8CA0
:1015C0009F8C75EC0EF012009D9C0201EA056EE105
:1015D0000201EB2B66EC0EF0F3CF10F0F4CF11F01C
:1015E0000201F451E96EEA6AD890E936EA36EC0E67
:1015F000E926020EEA221050EE261150ED22200EAE
:101600000201EB5D4FE30201F451E96EEA6AD89002
:10161000E936EA36EC0EE926020EEA22EECF10F0A9
:10162000EFCF11F0050ED89011321032E804FBE133
:101630000201F451E96EEA6AD890E936EA36F00E12
:10164000E926020EEA2210C0EEFF11C0EDFF0201F2
:10165000F451E96EEA6AD890E936EA36EC0EE926EA
:10166000020EEA22EE6AED6A0201EB6B0201F42B34
:10167000020E0201F45D02E30201F46B0201F45177
:10168000010A09E0010A01E00CD0870EE66EF0ECD9
:101690000DF0E55207D08F0EE66EF0EC0DF0E5523E
:1016A00001D000D075EC0EF00201EA6B9D8C1200A7
:1016B000D9CFE6FFE1CFD9FF020EE1269D9CFE0EB9
:1016C000EA6ADB34FE0BEA36E96EF00EE926020E1A
:1016D000EA22EECFDEFFEDCFDDFF9D8CDECF10F0F6
:1016E000DDCF11F010C0F3FF11C0F4FF00D0020EE7
:1016F000E15C02E2E16AE552E16EE552E7CFD9FF33
:101700001200DACFE4FFE2CFDAFFE6520201010E67
:0C171000EA6F9E9CE552E5CFDAFF110065
:04171C00D9CFE6FF3C
:10172000E1CFD9FF090EE126070EDB6A080EDB6A5E
:101730001DEC0EF0060EE66E36EC06F0E552000EDD
:10174000E66EE66ADF0EE66EB10EE66E8DEC0AF02E
:10175000E552E552E552E5526C0EE66E0D0EE66E70
:10176000770EE66EEC0EE66EB0EC0AF0E552E5524E
:10177000E552E552960EE66E050EE66EDD0EE66E5D
:10178000CC0EE66EBB0EE66EAA0EE66EF5EC03F02E
:10179000106E060EE15E1050D4EC0AF065EC00F01D
:1017A00015EC00F002010A0ECE5D000ECF5905E3E4
:1017B0000201CE6BCF6B070EDB2A040EF36E070E11
:1017C000DBCFF4FFF350F45C06E3E4EC0AF069ECE1
:1017D00000F0070EDB6A0201FA0ECC5D000ECD5957
:1017E00005E341EC0EF00201CC6BCD6B51EC04F043
:1017F0000400D8D7090EE15C02E2E16AE552E16E2D
:08180000E552E7CFD9FF120009
:08180800500EF66E000EF76EA3
:10181000000EF86E02010900F550FA6F0900F5504C
:10182000FB6F03E1FA6701D03DD00900F550F56F79
:101830000900F550F66F0900F550F76F090009002F
:10184000F550E96E0900F550EA6E0900090009003B
:10185000F550F86F0900F550F96F09000900F6CF4F
:10186000FCF2F7CFFDF2F8CFFEF2F5C2F6FFF6C2BA
:10187000F7FFF7C2F8FF0201F85302E1F95307E05E
:101880000900F550EE6EF807F8E2F907F9D7FCC247
:10189000F6FFFDC2F7FFFEC2F8FF0201FA07000ED5
:0618A000FB5BBFD7120044
:0A18A600D9CFE6FFDACFE6FFE1CF6D
:1018B000D9FFE2CFDAFFAC6AAB6AFD0EDBB0AC88D1
:1018C000DBA202D0AC8CAB8CDBB4AC8EDBA602D03E
:1018D000AB8801D0AB8ADBB8AC849E98DBBAAB8610
:1018E000DBAC02D09D8A01D09D9A9E9ADBAE02D0DD
:1018F0009D8801D09D98FB0EDB50AF6EFB0EFC0E59
:10190000DBCF11F011C010F0116A1050B06EAC8A2C
:10191000AB8E949C948EAC50100B04E0AC50800BBA
:1019200001E1948CE552E5CFDAFFE7CFD9FF120051
:1019300004500902F3CF00F0F4CF01F00A02F35093
:101940000126000EF420026E04500B02F350022612
:10195000000EF420036E04500C02F35003260550D1
:101960000902F3500126F4500222000E0322055012
:101970000A02F3500226F450032205500B02F350E2
:10198000032606500902F3500226F45003220650A3
:101990000A02F350032607500902F35003261200EF
:1019A000D9CFE6FFDACFE6FFE1CFD9FFE2CFDAFF0A
:1019B000C26AC06AFC0EDB407F0B3C0BC26EFC0EA1
:1019C000DB38F00B300B106EFB0EDB500F0B1010E2
:1019D000C16EFD0EDB50040DF350380B116EFD0E81
:1019E000DB380F0B070B106EFD0EDB50800B101059
:1019F0001110C06EFC0EDBAE03D09E9C9D8CF28C51
:0E1A0000C280E552E5CFDAFFE7CFD9FF120032
:021A0E00D9CF2E
:101A1000E6FFDACFE6FFE1CFD9FFE2CFDAFFE65209
:101A2000DF6AFF0EE76EFC0EDBCF10F0E7501016FA
:101A30001050A96EFB0EDB50A86EA69EA69CA68435
:101A4000F250800B01E0010EDF6EF29E550EA76E84
:101A5000AA0EA76EA682A6B2FED7DF50E8B0F28E1D
:101A6000E8A0F29EA694E552E552E5CFDAFFE7CF73
:041A7000D9FF120088
:0C1A7400D9CFE6FFDACFE6FFE1CFD9FFC3
:101A8000E2CFDAFFFF0EE76EFC0EDBCF10F0FD0EAB
:101A9000DBCF11F0E7501016116A1050A96EA69C0A
:101AA000A69EA68000000000A85000D0E552E5CF19
:081AB000DAFFE7CFD9FF1200B5
:081AB800D9CFE6FFDACFE6FF0B
:101AC000E1CFD9FFE2CFDAFFFD0EDB507E0BCD6E0A
:101AD000FD0EDBAC02D0CD8E01D0CD9ECF6ACE6A9A
:101AE0009E90DBAE02D09D8001D09D90CD80E552CE
:0A1AF000E5CFDAFFE7CFD9FF1200BF
:061AFA00D9CFE6FFDACFB0
:101B0000E6FFE1CFD9FFE2CFDAFFE652F20E0201A3
:101B1000FF17ABAC03D0FF91ABB0FF81ABB4FF8537
:101B2000ABB2FF87AE50DF6EDF50E552E552E5CF36
:081B3000DAFFE7CFD9FF120034
:081B3800D9CFE6FFDACFE6FF8A
:101B4000E1CFD9FFE2CFDAFFE652E652FC0EDBCF5F
:101B5000DEFFDBCFDDFF010EDB50CF6EDF50CE6E40
:101B6000E552E552E552E5CFDAFFE7CFD9FF1200A3
:101B7000D9CFE6FFDACFE6FFE1CFD9FFE2CFDAFF38
:101B8000E652E652FC0EDBCFDEFFDBCFDDFF010EBF
:101B9000DB50D76EDF50D66EE552E552E552E5CF09
:081BA000DAFFE7CFD9FF1200C4
:081BA800D9CFE6FFDACFE6FF1A
:101BB000E1CFD9FFE2CFDAFFFD0EDB507F0BD56E10
:101BC000D76AD66AF294FD0EDBAE02D0F28A01D05B
:101BD000F29AD58EE552E5CFDAFFE7CFD9FF1200B2
:101BE000D9CFE6FFDACFE6FFE1CFD9FFE2CFDAFFC8
:101BF000C30EC214106EFD0EDB407F0B3C0B1010A9
:0E1C0000C26EE552E5CFDAFFE7CFD9FF120042
:021C0E00036A67
:101C1000026A100EE76ED890063607360236033693
:101C20000B50025C0C50035805E30B50025E0C5045
:0A1C3000035A062AE72EF0D712002F
:061C3A000D0EC16E969430
:101C400092809282956A93909392939493969398AC
:0C1C5000939A939C939E929692881200A7
:041C5C00000EF36E15
:101C600000EE00F0060E01D81200EA6002D0EE6A23
:0C1C7000FCD7F350E9601200EE6AFCD7CC
:041C7C000101816B76
:101C800012000101810504E10101816B809604D0FD
:0A1C90000101010E816F8086120031
:061C9A0010EE80F020EEC8
:101CA00080F0F86A0F9C04EC0CF003EC00F08EEC72
:061CB0000BF0FBD712004F
:0A1CB600FF0EE350E84E120000009C
:0C1CC00000D000D000D0E82EFAD71200AF
:041CCC00C450136E7F
:0E1CD000126AC3501210F36E13C0F4FF12001C
:021CDE00A6B2AC
:041CE000FED7120019
:051CE400434F4D0A0012
:011CE90000FA
:041CEA00C2821200A0
:021CEE000000F4
:101CF00000000000000000000000000000000000E4
:101D000000000000000000000000000000000000D3
:101D100000000000000000000000000000000000C3
:101D200000000000000000000000000000000000B3
:101D300000000000000000000000000000000000A3
:101D40000000000000000000000000000000000093
:101D50000000000000000000000000000000000083
:0C1D600000000000000000000000000077
:041D6C000000000073
:101D70000000000000000000000000000000000063
:101D80000000000000000000000000000000000053
:101D90000000000000000000000000000000000043
:101DA0000000000000000000000000000000000033
:101DB0000000000000000000000000000000000023
:101DC0000000000000000000000000000000000013
:101DD0000000000000000000000000000000000003
:101DE00000000000000000000000000000000000F3
:081DF0000000000000000000EB
:081DF8000000000000000000E3
:051E00000000000000DD
:0B1E05000000000000000000000000D2
:101E100000000000000000000000000000000000C2
:091E2000000000000000000000B9
:071E290000000000000000B2
:071E300000000000000000AB
:091E37004944454F4E4943530054
:0B1E40003F065B4F666D7D077F6F0063
:051E4B003F065B4F663D
:061E50006D7D077F6F00AD
:021E5600FFFF8C
:081E5800000000000000000082
:031E60000000007F
:020000040030CA
:0100010006F8
:010002001BE2
:0100030012EA
:010005008179
:010006008178
:010008000FE8
:01000900C036
:01000A000FE6
:01000B00E014
:01000C000FE4
:01000D0040B2
:00000001FF
